:020000040800F2
:1000000020C001209D010008FB5E0008931A000833
:10001000F95E000895040008FD6C0008000000006F
:10002000000000000000000000000000C967000898
:1000300097040008000000007D5F0008CB670008FF
:10004000B7010008B7010008B7010008B7010008B0
:10005000B7010008B7010008B7010008B7010008A0
:10006000B7010008B7010008B7010008B701000890
:10007000B7010008B7010008B7010008B701000880
:10008000B7010008B7010008B7010008B701000870
:10009000B7010008B7010008B7010008B701000860
:1000A000B7010008B7010008B7010008B701000850
:1000B00071680008B7010008B7010008B70100081F
:1000C000B7010008B7010008B7010008B701000830
:1000D000B7010008B7010008B7010008B701000820
:1000E000B7010008B7010008B7010008B701000810
:1000F000B70100087D680008B7010008B7010008D3
:10010000B7010008B7010008B7010008B7010008EF
:10011000B7010008B7010008B7010008B7010008DF
:10012000B7010008B7010008B7010008B7010008CF
:10013000B7010008B7010008B7010008B7010008BF
:10014000B7010008B7010008B7010008B7010008AF
:10015000B7010008B7010008B7010008B70100089F
:10016000B7010008B7010008B7010008B70100088F
:10017000B7010008B7010008B7010008000000003F
:10018000B7010008B7010008DFF80CD000F070F9E3
:1001900000480047D172000820C00120064880476F
:1001A00006480047FEE7FEE7FEE7FEE7FEE7FEE75C
:1001B000FEE7FEE7FEE7FEE7556800088901000854
:1001C0002DE9F05F0546002092469B46884606468C
:1001D000814640241BE0284641464746224600F01F
:1001E000D9F853465A46C01A914110D311461846C1
:1001F000224600F0C0F82D1A67EB01084F46224650
:100200000120002100F0B7F817EB00094E41201E35
:10021000A4F10104DFDC484631462A464346BDE8E6
:10022000F09FD2B201E000F8012B491EFBD27047CB
:100230000022F6E710B513460A4604461946FFF7B2
:10024000F0FF204610BD2DE9FE4F81EA030404F0C3
:10025000004421F0004100944FF0000B23F00043D4
:1002600050EA01045ED052EA03045BD0C3F30A549F
:10027000C1F30A552C44A4F2F3340194A0FB0254B8
:10028000C1F3130141F48011C3F3130343F480134A
:1002900001FB024400FB034E840A970A44EA81549E
:1002A00047EA8357A4FB076802958D0A05FB07857B
:1002B0004FEA932C04FB0C542705029D4FEA065885
:1002C00047EA1637B5EB08056EEB070C870E920E62
:1002D00047EA811742EA8312A7FB0201B6EB0B0142
:1002E00064EB00042B0D43EA0C335E1844EB1C5006
:1002F000DA465146E7FB0201C5F313044FEA0B331C
:1003000043EA14534FEA0432019C43EA0603A4F182
:100310000C040294009CCDE900B400F05AF803B03C
:10032000BDE8F08F00200146F9E70EB540F23341F9
:1003300002910021CDE900110A460B4600F049F870
:1003400003B000BDC1F30A5210B5C1F3130140F26E
:10035000FF3341F480119A4201DA002010BD40F2CF
:1003600033439A42A2F2334203DC524200F012F8C5
:1003700010BD904010BD202A04DB203A00FA02F1A3
:10038000002070479140C2F1200320FA03F3194383
:1003900090407047202A04DB203A21FA02F0002125
:1003A000704721FA02F3D040C2F120029140084385
:1003B0001946704710B5141E73F1000408DA401C8A
:1003C00041F1000192185B411A4301D120F0010074
:1003D00010BD2DE9F04D92469B4611B1B1FA81F264
:1003E00002E0B0FA80F220329046FFF7C4FF0446E4
:1003F0000F4640EA0A0041EA0B0153465A460843B9
:1004000013D0114653EA010019D0C8F140025046FA
:10041000FFF7C0FF05460E46504659464246FFF7D5
:10042000AAFF084305D0012004E020463946BDE874
:10043000F08D0020054346EAE0762C4337430A98C6
:100440006305E40AA0EB08000022FD0A44EA4754D1
:100450000A3002D500200146E9E70105101969417B
:10046000DDE9084500196941BDE8F04DA2E700004B
:10047000064C074D06E0E06840F0010394E80700F1
:1004800098471034AC42F6D3FFF782FE008D000887
:10049000208D0008FEE770477047000070B5B3F587
:1004A000804F05D06FF0704140F82210002070BDE1
:1004B00050F82240084B8E891C40D1E9003543EAB0
:1004C00005138D6889692D0245EA06452B430B43C8
:1004D000234340F82230E9E70000F0CFF0B50C6884
:1004E00050F82430114A1340D1E90125D1E90367BE
:1004F0002A433E4332434E6932438E693243CE69CA
:1005000032430E6A32434E6A32438E6A3243CE6AB7
:100510003243CE6B096B32430A431A43082D01D193
:1005200042F0400240F824200020F0BD8000F0FF9F
:1005300030B500EB820250688D8900F04043D1E96C
:10054000000440EA04108C68240244EA0544204375
:100550000C8A074D05EB045420430C7D6D0105EB1F
:10056000046489692043084318435060002030BD6B
:100570000000F0FF70B5044600F048F90546601C25
:1005800002D004480078044400F040F9401BA04227
:10059000FAD370BD24000020F0B587B0142168465E
:1005A000FFF746FE2048016800293AD10121016089
:1005B0001E480024016841F0010101600068022525
:1005C00000F0010005904FF23F00CDE9000502AABE
:1005D00003260C2782E8D0006946154800F030F861
:1005E00041F23F40CDE9000502AA694682E8D00009
:1005F000104800F025F84FF68070CDE9000502AAFA
:10060000694682E8D0000C4800F01AF84FF63370C3
:10061000CDE9000502AA694682E8D000074800F04B
:100620000FF807B0F0BD0000180000203838024075
:10063000001402400018024000100240000C02406A
:100640002DE9F84F00224FF0010803254FF00F0E5F
:100650000B6808FA02F42340A3426ED14E68012EC3
:1006600005D0022E03D0112E01D0122E12D1866891
:100670004FEA420C05FA0CF7BE43CF6807FA0CF7B5
:10068000374387604668A6430C79C4F3001494404E
:1006900034434460C668570005FA07FC8C6826EAB4
:1006A0000C06BC403443C4604C68022C01D0122CB0
:1006B00013D1D40800EB8404A346D4F82090540747
:1006C0004FEAD46A0EFA0AF629EA06090E6906FA12
:1006D0000AF646EA0906CBF8206006680C7926EA95
:1006E0000C0604F00304BC40344304604C68E4008E
:1006F00065D5364C266846F480462660246822F08C
:10070000030604F480440094314C3444A446D4F8E5
:1007100008489607370F0EFA07F6B4432D4EB0423D
:1007200001D1002624E02C4EB04201D101261FE069
:100730002A4EB04202D102261AE040E0284EB042D2
:1007400001D1032614E0274EB04201D104260FE068
:10075000254EB04201D105260AE0244EB04201D117
:10076000062605E0224EB04201D1072600E0082609
:10077000BE402643CCF808681E4E34684F689C4340
:10078000FF0300D51C4334601A4C241D26684F68B3
:100790009E43BF0300D51E432660164E08363468BC
:1007A0004F689C43FF0200D51C433460114E0C3649
:1007B00034684F689C43BF0200D51C433460521C10
:1007C000102AFFF445AFBDE8F88F0000443802401E
:1007D00000300140000002400004024000080240D6
:1007E000000C0240001002400014024000180240B9
:1007F000001C0240003C01400069084000D001207C
:1008000070470AB1816170470904FBE701488068BD
:1008100070470000240000200248816802781144DB
:1008200081607047240000200B4810B5016841F436
:1008300000710160016841F480610160016841F468
:1008400080710160032000F06FF8002000F006F8CE
:1008500000F024F8002010BD003C024070B50D4DA2
:1008600004464FF47A712878B1FBF0F00A49096820
:10087000B1FBF0F000F07FFD48B9102C07D2002248
:100880002146501E00F030F800206C6070BD012041
:1008900070BD000024000020300000200A4808B588
:1008A000016841F480410160006800F480400090DC
:1008B0000548001F016841F080510160006800F0A8
:1008C0008050009008BD000044380240002809DB39
:1008D00000F01F02012191404009800000F1E0205A
:1008E000C0F8001170470000F0B40E4B1B680C46B6
:1008F000C3F30223C3F10705042D00D90425191DF4
:10090000072901D2002300E0DB1E012606FA05F1CB
:10091000491E214099409E40761E16403143F0BC4E
:1009200006F04ABB0CED00E0064900F0070208683B
:100930004FF6FF03184040EA0220034A10430860C4
:10094000704700000CED00E00000FA052DE9F047CB
:100950000E46050065D0DFF81481D8F80000F7B224
:1009600000F00F00B04207D288F80070D8F80000FD
:1009700000F00F00B04254D128683D4C810712D5D9
:10098000400703D5206840F4E05020602878000735
:1009900003D5206840F4604020602068A96820F0FA
:1009A000F000084320602878C0072DD030496868DF
:1009B0000839012812D0022813D0032811D0096861
:1009C000890700292DDA216821F003010143216004
:1009D000FFF71CFF814641F2883A0EE0096889035F
:1009E000EFE709688901ECE7FFF710FFA0EB0901C9
:1009F000514502D90320BDE8F0872068696800F0FE
:100A00000C00B0EB810FEFD1D8F80010404601F098
:100A10000F01B14207D90770006800F00F00B04223
:100A200001D00120E7E72878400705D52068E9686C
:100A300020F4E050084320602878000706D520689D
:100A4000296920F4604040EAC100206000F038F8D5
:100A50002168084AC1F30311515CC8400649086087
:100A600006480068FFF7FAFE0020C4E7003C024099
:100A700008380240C48C0008300000202800002004
:100A80000448054900680968044AC1F38221515CA1
:100A9000C84070473000002008380240D48C00085D
:100AA0000448054900680968044AC1F34231515CB1
:100AB000C84070473000002008380240D48C00083D
:100AC000154810B5006810F00C02144813D04110FE
:100AD000042A0FD0082A0ED10F4C241F2268236845
:100AE00002F03F025B0207D52068C0F38810A0FB2C
:100AF000010106E0084610BD2168C1F38811A1FB81
:100B000000010023FFF75CFB2168C1F30141491C90
:100B10004900B0FBF1F010BD083802400024F40099
:100B20002DE9F84F04006ED02078DFF83C93C00721
:100B3000A9F104054AD009F104000168C1F381015B
:100B4000012908D00068C0F3810002280AD1D9F831
:100B50000000400206D52868800337D56068002869
:100B6000E1D033E06068B0F5803F10D0B0F5A02F41
:100B7000286810D020F480302860286820F4802075
:100B800028606068A8B1FFF741FE06460DE02868BE
:100B900040F48030F4E740F480202860F7E700BF9D
:100BA000FFF734FE801B642873D828688003F7D5CC
:100BB0000CE0FFF72BFE064605E000BFFFF726FE20
:100BC000801B6428F0D828688003F7D42078DFF8E9
:100BD0009C8280074FF0000A3ED5A348001D0168A3
:100BE00011F00C0F08D00068C0F3810002280BD16F
:100BF000D9F80000400207D42868800716D5E068BD
:100C0000012800D112E02BE1E068B8B10120C8F85A
:100C10000000FFF7FBFD064605E000BFFFF7F6FD0D
:100C2000801B0228C0D828688007F7D5286821696A
:100C300020F0F80040EAC10028600DE0C8F800A0EC
:100C4000FFF7E4FD064604E0FFF7E0FD801B022805
:100C50001FD828688007F7D42078000722D5824E55
:100C600083486169703671B101210160FFF7CEFDE3
:100C7000074604E0FFF7CAFDC01B022809D8306808
:100C80008007F7D50EE0C0F800A0FFF7BFFD0746CC
:100C900005E082E0FFF7BAFDC01B02287DD830686E
:100CA0008007F7D42078400768D5DFF8BCB100276B
:100CB0000BF13C0BDBF80000C0000BD4DBF800109C
:100CC00041F08051CBF80010DBF80000012700F064
:100CD00080500090674E3068C00510D4306840F4F2
:100CE00080703060FFF792FD009005E0FFF78EFD09
:100CF0000099401A022850D83068C005F6D55A4EDF
:100D0000A0686C3601280FD00528306810D020F07C
:100D100001003060306820F004003060A068B8B195
:100D2000FFF774FD00900FE0306840F00100F4E739
:100D300040F004003060F7E7FFF768FD0099411AC2
:100D400041F28830814266D830688007F4D50EE0E1
:100D5000FFF75CFD009007E0FFF758FD0099411A8E
:100D600041F28830814256D830688007F4D42FB1E0
:100D7000DBF8001021F08051CBF80010A069C8B357
:100D80003949091D0968C1F3810102294AD00228A5
:100D9000504607D0C8F8600000E03CE0FFF736FDA1
:100DA00004463BE04746C8F86000FFF72FFD0646C3
:100DB00005E000BFFFF72AFD801B02282BD828681A
:100DC0008001F7D4D4E907010843A16A2A4A4908F7
:100DD00002EB0141626A41EA8211084394F82C1047
:100DE00040EA0161C9F8001001203866FFF70EFDE6
:100DF000044606E036E000BFFFF708FD001B0228AE
:100E000009D828688001F7D52CE000BFFFF7FEFC69
:100E1000001B022802D90320BDE8F88F2868800152
:100E2000F4D41FE00128F7D0D9F80000E26900F4FB
:100E30008001914214D1226A00F03F0191420FD10A
:100E400047F6C071626A0140914209D1A26A00F47A
:100E50004031914204D1E16A00F07060884201D0D3
:100E60000120D9E70020D7E70438024000004742BC
:100E7000800E4742007000400000FFFF2DE9FE4356
:100E8000044603200F4684F83400606C03285AD0CF
:100E9000B7F5805F57D04FF4006600254FF08068AB
:100EA000B7421CD1009501950021206805F09EF8FD
:100EB000800121D46946204605F024FB98BB0198A7
:100EC000400332D5B4F850000104206805F0BEF8A4
:100ED00048BB0221206822E0A06B284327E01FB115
:100EE000A06B40F0006022E0009501950021206891
:100EF00005F07CF8800101D53546EDE769462046CE
:100F000005F000FB78B90198C0030ED5B4F8500085
:100F10000104206805F09AF828B90021206805F03E
:100F2000E2F80028D8D00546D6E74546D4E7A063C6
:100F3000A06B012558B121680C48886384F83450AF
:100F40000120BDE8FE83A06B40F08050EFE7211D3B
:100F5000D4E905060EC90097CDE90106206805F021
:100F600048F884F834500020EBE70000FF0540000B
:100F7000F0B5426E920F0A70426EC2F383624A70FD
:100F8000426EC2F301628A70426E120CCA70B0F8EF
:100F90006420120A0A7190F864204A71826E120D60
:100FA000CA80826EC2F303420A72B0F86820C2F3AC
:100FB000C0324A72B0F86820C2F380328A72B0F848
:100FC0006820C2F34032CA72B0F86820C2F300321F
:100FD0000A7300264E73426C4FF40075012462B10F
:100FE000012A3AD0026847499163816B41F08051F0
:100FF000816380F834400120F0BDB0F86820C36EF2
:101000009205120D42EA93720A61C26EC2F3C26285
:101010000A75C26EC2F302624A75C26EC2F34252D0
:101020008A75C26EC2F38242CA75C26EC2F3C23200
:101030000A760A69521C42650B7E03F007039B1C6B
:101040009A4042650B7A03F00F0704FA07F38365B1
:101050005B0A5A43C0E917250EE090F86820C36E7A
:101060009206920A42EA13420A610A69521C9202EB
:101070004265C0E91652056630F86C2FC2F3803223
:1010800001F8192F0288C2F3C6124A70027802F0E2
:101090007F028A704268D20FCA704268C2F34172FE
:1010A0000A714268C2F382624A714268C2F3835293
:1010B0008A714268C2F34052CA710E724268C2F32A
:1010C00000424A728288C2F3C0328A728288C2F3B6
:1010D0008032CA728288C2F340320A738288C2F3B5
:1010E00000324A738288C2F381228A738288C2F3F3
:1010F0000122CA730079C0F3460008744C740020C2
:10110000F0BD0000FF05400070B504000ED094F85B
:101110003400002518B92577204600F03BF803205D
:1011200084F83400204600F00BF808B1012070BDAF
:10113000A5632563012084F83400002070BD000001
:10114000FEB50025044676200095CDE901502946DC
:101150000B460A46206804F04CFF08B10120FEBD92
:101160000B4E46F8A05F206804F055FF012535605E
:10117000204605F0A9FA20B9204605F02DFA0028EE
:10118000EDD084F83450A16B0143A163E6E7000081
:1011900000802542F0B587B0044614216846FFF769
:1011A00047F81D492068884233D11C480024016853
:1011B00041F400610160006800F400600590174888
:1011C0001438016841F004010160016801F0040174
:1011D0000591016841F0080101600068022500F0F6
:1011E000080005904FF4F850CDE9000502AA032647
:1011F0000C2782E8D00069460948FFF721FA04204D
:10120000CDE9000502AA694682E8D0000548FFF74B
:1012100017FA07B0F0BD0000002C0140443802402E
:1012200000080240000C024070B5040004D094F89D
:101230005100002510B106E0012070BD84F8505027
:10124000204600F037F8022084F851002068016839
:1012500021F040010160D4E901010843D4E90312FF
:101260001143084361690843218B01F4007108436D
:10127000E1690843216A0843A16A084321680860BC
:10128000A069042101EA1040616A084321684860AE
:10129000A06AB0F5005F02D12168E06A08612068A9
:1012A000C16921F40061C1616565012084F85100C4
:1012B000002070BD10B586B0044614216846FEF7C4
:1012C000B7FF13492068884220D1124800210268E4
:1012D00042F480520260006800F4805005900D488E
:1012E0001438026842F002020260006800F0020056
:1012F0000590382000900220CDE9010103200390E1
:101300000520049069460448FFF79AF906B010BD1D
:1013100000300140443802400004024070B51546D8
:101320000E46040003D094F8490010B107E00120F4
:1013300070BD002084F84800204600F01AF804F13F
:1013400008012068FFF7CAF83146A2682068FFF755
:10135000EFF8D4E901022946236BFFF79FF8A16853
:10136000206850F8212042F0010240F8212000209E
:1013700070BDFFF711B910B5401EB0F1807F01D3E9
:10138000012010BD4FF0E02460610F21601705F0CF
:1013900013FE0020A06107202061002010BD7047CF
:1013A0007047000070B590F83C20012A32D001242B
:1013B00080F83C40022280F83D2003685A689D680E
:1013C00022F070060A6832435A60134B02689A4250
:1013D00014D0B2F1804F11D0104B9A420ED0104B66
:1013E0009A420BD00F4B9A4208D00F4B9A4205D02D
:1013F0000E4B9A4202D00E4B9A4204D1496825F016
:1014000080031943916080F83D40002180F83C1032
:10141000084670BD022070BD00000140000400407D
:1014200000080040000C0040000401400040014062
:101430000018004010B5040003D094F83D0010B12E
:1014400007E0012010BD002084F83C00204600F099
:101450000DF8022084F83D00211D206805F014FAE3
:10146000012084F83D00002010BD000008B501688F
:101470001948B1F1804F0BD0184A914217D1016839
:1014800041F002010160006800F00200009008BD18
:10149000016841F0010101600068002200F00100D4
:1014A000009011461C20FFF71FFA1C2010E00C4A88
:1014B0009142ECD1016841F4807101600068002222
:1014C00000F48070009011462D20FFF70DFA2D20BA
:1014D000BDE80840FFF7FAB9403802400004004078
:1014E000002000400168CA6842F00102CA6000683A
:1014F000816801F00701062903D0016841F001016C
:1015000001600020704770B5044690F83C00012847
:1015100017D0012584F83C50022084F83D00206853
:10152000826822F0770222F47F42826008685028A5
:1015300030D00DDC20284DD005DC98B310283BD1ED
:1015400048E0022070BD302844D0402834D139E032
:10155000602828D0702806D0B0F5805F2CD0B0F578
:10156000005F29D10AE0CB68D1E90121206805F0AC
:10157000FCF92068816841F0770109E0CB68D1E986
:101580000121206805F0F1F92068816841F480416B
:10159000816011E0CA684968206805F0BBFA5021F3
:1015A000206807E016E0CA684968206805F0C3FAB9
:1015B0006021206805F0E3F984F83D50002084F8AC
:1015C0003C0070BDCA684968206805F0A3FA402154
:1015D0002068EFE7226801461046EBE7704770B5D8
:1015E0000446006801694FF00005C943890715D416
:1015F000C168C943890711D4E91E01610120207720
:10160000206880698007204602D0FFF7E7FF04E0EA
:1016100000F0C2F8204600F044F9257720680169FF
:10162000C943490717D4C168C943490713D46FF0A8
:1016300004010161022020772068806910F4407F56
:10164000204602D0FFF7CAFF04E000F0A5F82046CC
:1016500000F027F9257720680169C943090716D4E6
:10166000C168C943090712D46FF008010161042061
:1016700020772068C0698007204602D0FFF7AEFFC0
:1016800004E000F089F8204600F00BF92577206887
:101690000169C943C90617D4C168C943C90613D42F
:1016A0006FF010010161082020772068C06910F4F4
:1016B000407F204602D0FFF791FF04E000F06CF875
:1016C000204600F0EEF8257720680169C943C90774
:1016D00008D1C168C943C90704D1891E01612046E8
:1016E00000F002F920680169C943090609D4C168FC
:1016F000C943090605D46FF0800101612046FFF758
:101700004EFE20680169C943490609D4C168C9432E
:10171000490605D46FF040010161204600F0F4F85D
:1017200020680169C94389060BD4C168C943890689
:1017300007D46FF0200101612046BDE87040FFF73B
:101740002FBE70BD10B586B0044614216846FEF762
:101750006FFD0E492068884216D10D4800210268AD
:1017600042F020020260006800F0200005904FF473
:10177000007000900220CDE901010920CDE903109D
:1017800069460448FEF75CFF06B010BD002000402B
:101790003038024000140240704770B5044690F89B
:1017A0003C000D4601280DD0012684F83C60022043
:1017B00084F83D0042B1042A18D0082A2AD00C2A05
:1017C0004DD139E0022070BD206805F0E1F82068B5
:1017D000816941F0080181612068816921F004017B
:1017E0008161206881692A69114311E0206805F050
:1017F000FFF82068816941F4006181612068816996
:1018000021F480618161206881692A6941EA0221AD
:10181000816124E0206805F021F92068C16941F068
:101820000801C1612068C16921F00401C16120681B
:10183000C1692A69114311E0206805F043F9206865
:10184000C16941F40061C1612068C16921F480610E
:10185000C1612068C1692A6941EA0221C16184F835
:101860003D60002084F83C0070BD10B5040003D03A
:1018700094F83D0010B107E0012010BD002084F86D
:101880003C00204600F00CF8022084F83D00211DA9
:10189000206804F0F9FF012084F83D00002010BD0D
:1018A0007047704710B504460068012205F050F8F3
:1018B0000B492068884202D00A49884203D1416C12
:1018C00041F4004141642068816801F00701062964
:1018D00003D0016841F001010160002010BD00004B
:1018E000000001400004014010B506490068096885
:1018F000884205D104F032FBBDE8104004F040BB43
:1019000010BD000008120020704770B5040004D01C
:1019100094F83900002510B106E0012070BD84F86C
:101920003850204600F022F8242084F8390020683E
:10193000C16821F40051C160204605F019F9206802
:10194000016921F4904101612068416921F02A0177
:1019500041612068C16841F40051C160E563202005
:1019600084F8390084F83A00002070BD10B586B0C4
:10197000044614216846FEF75BFC1449206888423F
:1019800021D113480021026842F010020260006871
:1019900000F0100005900E481438026842F0010271
:1019A0000260006800F0010005904FF4C0600090F4
:1019B0000220CDE90101032003900720049069462D
:1019C0000448FEF73DFE06B010BD000000100140C7
:1019D00044380240000002402DE9F843044690F8E4
:1019E00039001F4616460D46202850D1B5B1AEB17C
:1019F00094F8380001284AD0012084F838004FF0CC
:101A00000008C4F83C80212084F83900FEF7FEFE6F
:101A1000A6848146E68484F8388026E00120BDE86B
:101A2000F883E08C401EE084A0684B46B0F5805FF0
:101A30004FF000024FF080012046009703D005F0E0
:101A40002BF9E8B90DE005F027F9C8B92888216815
:101A5000C0F308004860206908B16D1C05E0AD1CAA
:101A600003E0216815F8010B4860E08C0028D8D10C
:101A70004B46002240212046009705F00DF908B1A1
:101A80000320CCE7202084F839000020C7E702209B
:101A9000C5E7FEE71B484FF47A720178090709D5BC
:101AA0004188914201D2491C418089B2642901D107
:101AB000032101740179090709D5C188914201D236
:101AC000491CC18089B2642901D106210174017ABF
:101AD000090709D54189914201D2491C418189B246
:101AE000642901D109210174017B090709D5C18944
:101AF000914201D2491CC18189B2642901D10C21D2
:101B0000017470475C000020F0B5324F0120324C68
:101B1000397C1025002689B00D2951D2DFE801F06B
:101B2000502E2B2B562B2B562B2B072B2B00C4F870
:101B3000A8624FF6FF70009040F23F13EF22AA21F7
:101B4000002000F059FA25A0CDE900501023C8224A
:101B5000AA211E2003F07AFF1A220021254805F051
:101B600071F925A0CDE900501023C822AA211E201A
:101B700003F06CFF24E0C4F8A80224E024A0CDE91F
:101B800000501023C822AA211E2003F05FFF1A2252
:101B9000002102A805F0F2F823A0CDE9005010239F
:101BA000C822AA211E2003F051FF02A8CDE900504F
:101BB0001023C822BE211E2003F048FFC4F8A862EB
:101BC000387C002800D03E7409B0F0BDC4F8A8628B
:101BD000F9E700005C00002000804242537461720B
:101BE0007420577269746520573235513132382E5E
:101BF0002E2E2E00AA8C0008573235513132382053
:101C000057726974652046696E697368656421005E
:101C100053746172742052656164205732355131BA
:101C200032382E2E2E2E20005468652044617461B7
:101C3000205265616465642049733A2020200000C9
:101C400070B53C4C002000BF14F8201021F00101B9
:101C500004F82010401CC0B20428F5D3364D1021E2
:101C60002846FEF7C9FD18B9207840F00100207021
:101C700008212846FEF7C0FD18B9207940F0010080
:101C8000207104212846FEF7B7FD18B9217A41F0EA
:101C90000101217201212948FEF7AEFD18B1217B17
:101CA00041F00101217300215FF0010214F82100CD
:101CB00022EAD003034063F3410080EA500383EA41
:101CC000D00363F38200034660F3C30304F82130BA
:101CD000180703D404EB810300205880491CC9B2C3
:101CE0000429E3D32078810700D52274237999074A
:101CF00001D504212174227A910701D5072121748D
:101D0000217B8D0701D50A252574400701D50220C6
:101D10002074580701D505202074500701D50820EC
:101D20002074480701D50B202074BDE87040FFF7F0
:101D3000B1BE00005C000020001002400000024024
:101D40002DE9F043174C81460025208866884643DC
:101D5000A088A0F5D041043902D1A079012808D08B
:101D60000021084603F05AFD03F0B2FE4FF0D840C0
:101D700013E00020A0712A2767814FF02B08A4F8F8
:101D80000C80014603F04AFD0120A071A4F80A80EE
:101D9000A781E9E7A0F880906D1CB542FAD3BDE8B1
:101DA000F08300007E0000202DE9F04F4A492A24EC
:101DB0002B25898845F2105A4FF4305B4FF4285E8A
:101DC0004FF448764FF0F00C49F241394FF4A073CC
:101DD00045F210374FF4F07280B13F484FF00108E0
:101DE000494580F806800380A0F802C001D0B942BE
:101DF0003ED12C2606814481858157E036484FF03C
:101E00000008494580F80680A0F800C0438006D04D
:101E1000A1F5D04CBCF1040C01D0B9420CD12C2658
:101E200006814481A1F5D0448581043C01D0B942AA
:101E300044D10380428041E0514507D1A0F808B069
:101E4000A0F80AE04FF42C5181810EE0A1F5C853AF
:101E5000633B06D022210181202141812121818102
:101E60002CE02C210181458184810280468025E07F
:101E7000A1F5D04CBCF1040C09D051450BD1A0F810
:101E800008B0A0F80AE04FF42C54848121E02C26FD
:101E90000681458109E0A1F5C85CBCF1630C12D054
:101EA000222404812124448120248481A1F5D0446A
:101EB000043C01D0B94201D102804380BDE8F04F1B
:101EC000002003F0A9BB4FF02C0CA0F808C04481FF
:101ED000858106804280E9E77E0000202DE9F043FD
:101EE000444C91460246A08823460D464FEA1128ED
:101EF000160A5B89A0F51341413917D0A0F5A64118
:101F0000103913D0A0F5AA41103914D02646A0F5F7
:101F1000C857B1793688B61A761E633F25D0A0F52A
:101F2000D047043F3DD0012951D051E0184603F07D
:101F3000C3FD30463CE0184603F0BEFD304603F0DA
:101F4000AFFD6089401C80B203F0B6FDD0B203F053
:101F5000A7FDA08903F0B0FD404603F0A1FDA089D4
:101F6000401C80B203F0A8FD2DE001B9B2B21846C2
:101F700003F0A2FD160A304603F092FDD0B203F042
:101F80008FFD304603F08CFDD0B203F089FDA089AF
:101F900003F092FD404603F083FDE8B203F080FDBC
:101FA0000EE0012900D1B2B2184603F085FD100AF7
:101FB00003F076FDD0B203F073FDA08903F07CFD41
:101FC000404603F06DFDE8B203F06AFD08E0B2B2EE
:101FD0001146184603F086FDA089294603F082FDCC
:101FE0004FF0D840218920F87E1FA0F80290BDE86C
:101FF000F08300007E0000202DE9F843204C1E46AF
:102000008046A388089FA3F5D040043802D1A07968
:10201000012807D0A2EB0800401C84B20D464FF007
:10202000D84929E025880846A91AA5EB0803002508
:10203000A57132462A2565812B26491E5B1EA68185
:1020400089B29BB20097FFF7D7FF0120A07166818C
:10205000A581BDE8F8832946404603F0DFFB03F085
:1020600037FD0020494603E0A1F88070401C80B293
:10207000A042F9D36D1CADB2B542ECD9E9E700003E
:102080007E0000202DE9F84F002000903220FEF75E
:1020900071FA0121002003F025FD3220FEF76AFAD3
:1020A000002003F089FAFE4A4FF020494FF6FF7AEC
:1020B000908049F2413645F2103745F2105441F60E
:1020C000631546F60408FF2804D3504502D0B0F546
:1020D000134F73D1D32003F0EFFC03F063FA908029
:1020E00003F060FA908003F05DFA0AEA0020908025
:1020F00003F058FA918808439080B0425ED0BF2028
:1021000003F0DAFC03F04EFA908003F04BFA908073
:1021100003F048FA908003F045FA0AEA0020908024
:1021200003F040FA918808439080404546D0D4207F
:1021300003F0C2FC03F036FA908003F033FA90808B
:1021400003F030FA0AEA0020908003F02BFA91881D
:1021500008439080B84231D04FF45A4003F0ACFCB1
:1021600003F020FA90804FF45B4003F0A5FC03F0ED
:1021700019FA0AEA002090804FF45C4003F09CFCBE
:1021800003F010FA918808439080B0F5004F38D0E2
:10219000A04213D0A12003F08FFC03F003FA90803B
:1021A00003F000FA0AEA0020908003F0FBF991881E
:1021B0000843A0F5AE419080613920D080B2B04292
:1021C00005D0B84203D0A04201D0A8421BD1D9F813
:1021D0001C11484621F00F01C9F81C11D9F81C1137
:1021E00021F47061C9F81C11D9F81C1141F00301E8
:1021F000C9F81C11D9F81C1141F4007120E0958038
:10220000E5E79480E3E7404503D0A0F54541053973
:1022100018D1D9F81C11484621F00F01C9F81C113A
:10222000D9F81C1121F47061C9F81C11D9F81C11DE
:1022300041F00A01C9F81C11D9F81C1141F44061A0
:10224000C0F81C119146918896A004F0A5FEB9F83B
:102250000400B0427ED1CF2003F02EFC002003F01A
:102260001FFCC12003F01CFC302003F019FCED2002
:1022700003F022FC642003F013FC032003F010FCA5
:10228000122003F00DFC812003F00AFCE82003F08B
:1022900013FC852003F004FC102003F001FC7A20DD
:1022A00003F0FEFBCB2003F007FC392003F0F8FB22
:1022B0002C2003F0F5FB002003F0F2FB342003F0A8
:1022C000EFFB022003F0ECFBF72003F0F5FB2020EE
:1022D00003F0E6FBEA2003F0EFFB002003F0E0FB55
:1022E000002003F0DDFBC02003F0E6FB1B2003F021
:1022F000D7FBC12003F0E0FB012003F0D1FBC52098
:1023000003F0DAFB302003F0CBFB302003F0C8FBF6
:10231000C72003F0D1FBB72003F0C2FB362003F047
:10232000CBFB482003F0BCFB3A2003F0C5FB552053
:1023300003F0B6FBB12003F0BFFB002003F0B0FBBD
:102340001A2003F0ADFBB62003F0B6FB0A2003F021
:10235000A7FB00E090E0A22003F0A2FBF22003F034
:10236000ABFB002003F09CFB262003F0A5FB012023
:1023700003F096FBE02003F09FFB0F2003F090FB9F
:102380002A2003F08DFB282003F08AFB082003F0AD
:1023900087FB0E2003F084FB082003F081FB542010
:1023A00003F07EFBA92003F07BFB432003F078FBC6
:1023B0000A2003F075FB0F2003F072FB002003F0EE
:1023C0006FFB002003F06CFB002003F069FB002092
:1023D00003F066FBE12003F06FFB002003F060FBDD
:1023E000152003F05DFB172003F05AFB072003F0D4
:1023F00057FB112003F054FB062003F051FB2B2068
:1024000003F04EFB562003F04BFB3C2003F048FB4F
:10241000052003F045FB102003F042FB0F2003F0E2
:102420003FFB3F2003F03CFB3F2003F039FB0F2034
:1024300003F036FB2B2003F03FFB002003F030FBC2
:10244000002003F02DFB012003F02AFB3F2003F0C6
:1024500027FB2A2003F030FB002003F021FB0020A3
:1024600003F01EFB002003F01BFBEF2003F018FB22
:10247000112003F021FBB1E040457CD1112003F095
:102480001BFB1420FEF776F8D02003F015FB072085
:1024900003F006FB422003F003FB1D200AE00000CE
:1024A0007E000020204C43442049443A25780D0A00
:1024B0000000000003F0F4FAD12003F0FDFA002040
:1024C00003F0EEFA1A2003F0EBFA092003F0E8FA21
:1024D000D22003F0F1FA012003F0E2FA222003F007
:1024E000DFFAC02003F0E8FA102003F0D9FA3B200D
:1024F00003F0D6FA002003F0D3FA022003F0D0FA5A
:10250000112003F0CDFAC52003F0D6FA032003F022
:10251000C7FAC82003F0D0FA002003F0C1FA252042
:1025200003F0BEFA212003F0BBFA052003F0B8FA4D
:10253000002003F0B5FA0A2003F0B2FA652003F098
:10254000AFFA252003F0ACFA772003F0A9FA502067
:1025500003F0A6FA0F2003F0A3FA002003F0A0FA7C
:10256000F82003F0A9FA012003F09AFAFE2003F004
:10257000A3FA002000E037E003F092FA022003F013
:102580008FFA202003F098FA362003F095FA0820FD
:1025900003F086FA3A2003F08FFA552003F080FA10
:1025A0002B2003F089FA002003F07AFA002003F0D0
:1025B00077FA012003F074FA3F2003F071FA2A2021
:1025C00003F07AFA002003F06BFA002003F068FAB7
:1025D000012003F065FADF2003F062FA7820FDF7AE
:1025E000C9FF292001F0FBBEB8427CD1ED2003F0E9
:1025F00063FA012003F054FAFE2003F051FAEE20B2
:1026000003F05AFADE2003F04BFA212003F048FAD7
:10261000F12003F051FA012003F042FADF2003F029
:102620004BFA102003F03CFAC42003F045FA8F2047
:1026300003F036FAC62003F03FFA002003F030FA28
:10264000E22003F02DFAE22003F02AFAE22003F060
:1026500027FABF2003F030FAAA2003F021FAB020B5
:1026600003F02AFA0D2003F01BFA002003F018FAF9
:102670000D2003F015FA002003F012FA112003F0E8
:102680000FFA002003F00CFA192003F009FA0020D9
:1026900003F006FA212003F003FA002003F000FA09
:1026A0002D2003F0FDF9002003F0FAF93D2003F09E
:1026B000F7F9002003F0F4F95D2003F0F1F90020B0
:1026C00003F0EEF95D2003F0EBF9002003F0E8F9E8
:1026D000B12003F0F1F9802003F0E2F9002003F0CB
:1026E000DFF98B2000E0FCE303F0DAF9002003F0CF
:1026F000D7F9962003F0D4F9002003F0D1F9B220E5
:1027000003F0DAF9002003F0CBF9002003F0C8F958
:10271000022003F0C5F9002003F0C2F9032003F002
:10272000BFF9002003F0BCF9B32003F0C5F9002085
:1027300003F0B6F9002003F0B3F9002003F0B0F97C
:10274000002003F0ADF9002003F0AAF9002003F007
:10275000A7F9002003F0A4F9002003F0A1F900205C
:1027600003F09EF9002003F09BF9002003F098F994
:10277000002003F095F9002003F092F9002003F007
:102780008FF9002003F08CF9002003F089F9002074
:1027900003F086F9002003F083F9002003F080F9AC
:1027A000002003F07DF9002003F07AF9002003F007
:1027B00077F9002003F074F9002003F071F9B420D8
:1027C00003F07AF98B2003F06BF9002003F068F92D
:1027D000962003F065F9002003F062F9A12003F0D0
:1027E0005FF9002003F05CF9B52003F065F90220E1
:1027F00003F056F9002003F053F9032003F050F9D9
:10280000002003F04DF9042003F04AF9002003F002
:1028100047F9B62003F050F9002003F041F90020F9
:1028200003F03EF9B72003F047F9002003F038F930
:10283000002003F035F93F2003F032F9002003F0C7
:102840002FF95E2003F02CF9002003F029F9642011
:1028500003F026F9002003F023F98C2003F020F97F
:10286000002003F01DF9AC2003F01AF9002003F05A
:1028700017F9DC2003F014F9002003F011F970209F
:1028800003F00EF9002003F00BF9902003F008F993
:10289000002003F005F9EB2003F002F9002003F01B
:1028A000FFF8DC2003F0FCF8002003F0F9F8B82072
:1028B00003F002F9002003F0F3F8002003F0F0F831
:1028C000002003F0EDF8002003F0EAF8002003F008
:1028D000E7F8002003F0E4F8002003F0E1F800201E
:1028E00003F0DEF8BA2003F0E7F8242003F0D8F86C
:1028F000002003F0D5F8002003F0D2F8002003F008
:10290000CFF8C12003F0D8F8202003F0C9F8002048
:1029100003F0C6F8542003F0C3F8002003F0C0F819
:10292000FF2003F0BDF8002003F0BAF8C22003F046
:10293000C3F80A2003F0B4F8002003F0B1F8042033
:1029400003F0AEF8002003F0ABF8C32003F0B4F8B6
:102950003C2003F0A5F8002003F0A2F83A2003F091
:102960009FF8002003F09CF8392003F099F800202C
:1029700003F096F8372003F093F8002003F090F866
:102980003C2003F08DF8002003F08AF8362003F095
:1029900087F8002003F084F8322003F081F800204B
:1029A00003F07EF82F2003F07BF8002003F078F886
:1029B0002C2003F075F8002003F072F8292003F0B2
:1029C0006FF8002003F06CF8262003F069F800206F
:1029D00003F066F8242003F063F8002003F060F8A9
:1029E000242003F05DF8002003F05AF8232003F0C0
:1029F00057F8002003F054F83C2003F051F8002071
:102A000003F04EF8362003F04BF8002003F048F8AE
:102A1000322003F045F8002003F042F82F2003F0A5
:102A20003FF8002003F03CF82C2003F039F8002098
:102A300003F036F8292003F033F8002003F030F8D3
:102A4000262003F02DF8002003F02AF8242003F0BC
:102A500027F8002003F024F8242003F021F80020B8
:102A600003F01EF8232003F01BF8002003F018F8F1
:102A7000C42003F021F8622003F012F8002003F0D4
:102A80000FF8052003F00CF8002003F009F884206B
:102A900003F006F8002003F003F8F02003F000F83C
:102AA000002002F0FDFF182002F0FAFF002002F0E3
:102AB000F7FFA42002F0F4FF002002F0F1FF18203D
:102AC00002F0EEFF002002F0EBFF502002F0E8FFE2
:102AD000002002F0E5FF0C2002F0E2FF002002F0EF
:102AE000DFFF172002F0DCFF002002F0D9FF952065
:102AF00002F0D6FF002002F0D3FFF32002F0D0FF57
:102B0000002002F0CDFFE62002F0CAFF002002F014
:102B1000C7FFC52002F0D0FF322002F0C1FF002025
:102B200002F0BEFF442002F0BBFF002002F0B8FF1D
:102B3000652002F0B5FF002002F0B2FF762002F01F
:102B4000AFFF002002F0ACFF882002F0A9FF0020B8
:102B500002F0A6FFC62002F0AFFF202002F0A0FF87
:102B6000002002F09DFF172002F09AFF002002F0E3
:102B700097FF012002F094FF002002F091FFC72090
:102B800002F09AFF002002F08BFF002002F088FF85
:102B9000002002F085FF002002F082FFC82002F032
:102BA0008BFF002002F07CFF002002F079FF002064
:102BB00002F076FF002002F073FFC92002F07CFFD4
:102BC000002002F06DFF002002F06AFF002002F0FA
:102BD00067FF002002F064FF002002F061FF002088
:102BE00002F05EFF002002F05BFF002002F058FFC1
:102BF000002002F055FF002002F052FF002002F0FA
:102C00004FFF002002F04CFF002002F049FF00209F
:102C100002F046FF002002F043FF002002F040FFD8
:102C2000E02002F049FF162002F03AFF002002F0F7
:102C300037FF1C2002F034FF002002F031FF21207A
:102C400002F02EFF002002F02BFF362002F028FFBA
:102C5000002002F025FF462002F022FF002002F0B3
:102C60001FFF522002F01CFF002002F019FF642019
:102C700002F016FF002002F013FF7A2002F010FF8E
:102C8000002002F00DFF8B2002F00AFF002002F06E
:102C900007FF992002F004FF002002F001FFA820A6
:102CA00002F0FEFE002002F0FBFEB92002F0F8FE6A
:102CB000002002F0F5FEC42002F0F2FE002002F037
:102CC000EFFECA2002F0ECFE002002F0E9FED22066
:102CD00002F0E6FE002002F0E3FED92002F0E0FE62
:102CE000002002F0DDFEE02002F0DAFE002002F01B
:102CF000D7FEF32002F0D4FE002002F0D1FEE12046
:102D000002F0DAFE162002F0CBFE002002F0C8FE30
:102D10001C2002F0C5FE002002F0C2FE222002F0BC
:102D2000BFFE002002F0BCFE362002F0B9FE0020FB
:102D300002F0B6FE452002F0B3FE002002F0B0FE25
:102D4000522002F0ADFE002002F0AAFE642002F044
:102D5000A7FE002002F0A4FE7A2002F0A1FE0020CF
:102D600002F09EFE8B2002F09BFE002002F098FEF7
:102D7000992002F095FE002002F092FEA82002F0B9
:102D80008FFE002002F08CFEB92002F089FE0020A8
:102D900002F086FEC42002F083FE002002F080FED6
:102DA000CA2002F07DFE002002F07AFED22002F05E
:102DB00077FE002002F074FED82002F071FE0020A1
:102DC00002F06EFEE02002F06BFE002002F068FED2
:102DD000F32002F065FE002002F062FEE22002F025
:102DE0006BFE052002F05CFE002002F059FE0B2075
:102DF00002F056FE002002F053FE1B2002F050FEAF
:102E0000002002F04DFE342002F04AFE002002F0C5
:102E100047FE442002F044FE002002F041FE4F2015
:102E200002F03EFE002002F03BFE612002F038FE80
:102E3000002002F035FE792002F032FE002002F080
:102E40002FFE882002F02CFE002002F029FE9720A1
:102E500002F026FE002002F023FEA62002F020FE53
:102E6000002002F01DFEB72002F01AFE002002F042
:102E700017FEC22002F014FE002002F011FEC7204F
:102E800002F00EFE002002F00BFED12002F008FE40
:102E9000002002F005FED62002F002FE002002F023
:102EA000FFFDDD2002F0FCFD002002F0F9FDF32023
:102EB00002F0F6FD002002F0F3FDE32002F0FCFD3D
:102EC000052002F0EDFD002002F0EAFD0A2002F0EC
:102ED000E7FD002002F0E4FD1C2002F0E1FD0020EF
:102EE00000E0FDE202F0DCFD332002F0D9FD00201D
:102EF00002F0D6FD442002F0D3FD002002F0D0FD08
:102F0000502002F0CDFD002002F0CAFD622002F048
:102F1000C7FD002002F0C4FD782002F0C1FD0020B2
:102F200002F0BEFD882002F0BBFD002002F0B8FDDB
:102F3000972002F0B5FD002002F0B2FDA62002F0BD
:102F4000AFFD002002F0ACFDB72002F0A9FD00208B
:102F500002F0A6FDC22002F0A3FD002002F0A0FDB9
:102F6000C72002F09DFD002002F09AFDD12002F062
:102F700097FD002002F094FDD52002F091FD002085
:102F800002F08EFDDD2002F08BFD002002F088FDB6
:102F9000F32002F085FD002002F082FDE42002F023
:102FA0008BFD012002F07CFD002002F079FD012064
:102FB00002F076FD002002F073FD022002F070FDA9
:102FC000002002F06DFD2A2002F06AFD002002F0D0
:102FD00067FD3C2002F064FD002002F061FD4B2003
:102FE00002F05EFD002002F05BFD5D2002F058FD66
:102FF000002002F055FD742002F052FD002002F086
:103000004FFD842002F04CFD002002F049FD93208A
:1030100002F046FD002002F043FDA22002F040FD38
:10302000002002F03DFDB32002F03AFD002002F046
:1030300037FDBE2002F034FD002002F031FDC42037
:1030400002F02EFD002002F02BFDCD2002F028FD25
:10305000002002F025FDD32002F022FD002002F026
:103060001FFDDD2002F01CFD002002F019FDF32001
:1030700002F016FD002002F013FDE52002F01CFD19
:10308000002002F00DFD002002F00AFD002002F0F9
:1030900007FD002002F004FD022002F001FD0020E7
:1030A00002F0FEFC292002F0FBFC002002F0F8FCFC
:1030B0003C2002F0F5FC002002F0F2FC4B2002F074
:1030C000EFFC002002F0ECFC5D2002F0E9FC0020A7
:1030D00002F0E6FC742002F0E3FC002002F0E0FCC9
:1030E000842002F0DDFC002002F0DAFC932002F0E4
:1030F000D7FC002002F0D4FCA22002F0D1FC00207A
:1031000002F0CEFCB32002F0CBFC002002F0C8FCA1
:10311000BE2002F0C5FC002002F0C2FCC42002F078
:10312000BFFC002002F0BCFCCD2002F0B9FC002066
:1031300002F0B6FCD32002F0B3FC002002F0B0FC99
:10314000DC2002F0ADFC002002F0AAFCF32002F02B
:10315000A7FC002002F0A4FCE62002F0ADFC112048
:1031600002F09EFC002002F09BFC342002F098FC50
:10317000002002F095FC562002F092FC002002F0A4
:103180008FFC762002F08CFC002002F089FC772076
:1031900002F086FC002002F083FC662002F080FC36
:1031A000002002F07DFC882002F07AFC002002F072
:1031B00077FC992002F074FC002002F071FCBB2027
:1031C00002F06EFC002002F06BFC992002F068FC1B
:1031D000002002F065FC662002F062FC002002F094
:1031E0005FFC552002F05CFC002002F059FC5520E9
:1031F00002F056FC002002F053FC452002F050FC87
:10320000002002F04DFC432002F04AFC002002F0B6
:1032100047FC442002F044FC002002F041FCE7207F
:1032200002F04AFC322002F03BFC002002F038FCA5
:10323000552002F035FC002002F032FC762002F02E
:103240002FFC002002F02CFC662002F029FC00205C
:1032500002F026FC672002F023FC002002F020FC94
:10326000672002F01DFC002002F01AFC872002F00B
:1032700017FC002002F014FC992002F011FC002041
:1032800002F00EFCBB2002F00BFC002002F008FC58
:10329000992002F005FC002002F002FC772002F0E9
:1032A000FFFB002002F0FCFB442002F0F9FB0020B1
:1032B00002F0F6FB562002F0F3FB002002F0F0FBD8
:1032C000232002F0EDFB002002F0EAFB332002F0A5
:1032D000E7FB002002F0E4FB452002F0E1FB0020C8
:1032E00002F0DEFBE82002F0E7FB002002F0D8FB52
:1032F000002002F0D5FB992002F0D2FB002002F062
:10330000CFFB872002F0CCFB002002F0C9FB882015
:1033100002F0C6FB002002F0C3FB772002F0C0FBE6
:10332000002002F0BDFB662002F0BAFB002002F094
:10333000B7FB882002F0B4FB002002F0B1FBAA200A
:1033400002F0AEFB002002F0ABFBBB2002F0A8FBBA
:10335000002002F0A5FB992002F0A2FB002002F061
:103360009FFB662002F09CFB002002F099FB552099
:1033700002F096FB002002F093FB552002F090FB38
:10338000002002F08DFB442002F08AFB002002F0B6
:1033900087FB442002F084FB002002F081FB5520D3
:1033A00002F07EFB002002F07BFBE92002F084FBB0
:1033B000AA2002F075FB002002F072FB002002F050
:1033C0006FFB002002F06CFB002002F075FBAA20CE
:1033D00002F066FBCF2002F06FFB002002F060FBE2
:1033E000002002F05DFB002002F05AFB002002F0FA
:1033F00057FB002002F054FB002002F051FB00209C
:1034000002F04EFB002002F04BFB002002F048FBD4
:10341000002002F045FB002002F042FB002002F0F9
:103420003FFB002002F03CFB002002F039FB0020B3
:1034300002F036FB002002F033FB002002F030FBEC
:10344000F02002F039FB002002F02AFB502002F0AD
:1034500027FB002002F024FB002002F021FB0020CB
:1034600002F01EFBF32002F027FB002002F018FB05
:10347000F92002F021FB062002F012FB102002F0DE
:103480000FFB292002F00CFB002002F009FB3A2080
:1034900002F012FB552002F003FB112002F00CFB9E
:1034A0006420FDF767F8292002F006FB352002F0C2
:1034B00003FB002002F0F4FA512002F0FDFAFF2095
:1034C00002F0EEFA532002F0F7FA2C2002F0E8FAAC
:1034D000552002F0F1FA822002F0E2FA2C20FCE3FF
:1034E000A0427DD14FF470435521184602F0FAFAFC
:1034F0004FF20104AA21204602F0F4FA651C522181
:10350000284602F0EFFAA61C0821304602F0EAFA3B
:10351000E71C0121384602F0E5FA0D214FF4304056
:1035200002F0E0FA0D214BF2010002F0DBFA0D216E
:103530004BF2020002F0D6FA4FF4364834214046EE
:1035400002F0D0FA34214BF2016002F0CBFA3421C0
:103550004BF2026002F0C6FA4FF431490D214846A1
:1035600002F0C0FA4BF2011B0D21584602F0BAFAE4
:103570000D214BF2021002F0B5FA34214FF437401E
:1035800002F0B0FA34214BF2017002F0ABFA3421B0
:103590004BF2027002F0A6FA00214FF4324002F022
:1035A000A1FA00214BF2012002F09CFA00214BF21B
:1035B000022002F097FA24214FF4384002F092FAE8
:1035C00024214BF6010002F08DFA24214BF6020073
:1035D00002F088FA01214FF43F4002F083FA00E044
:1035E000FEE30F214FF4334002F07CFA0F214BF23F
:1035F000013002F077FA0F214BF2023002F072FA3A
:1036000034214FF4394002F06DFA34214BF60110A9
:1036100002F068FA34214BF6021002F063FA082136
:103620004FF4354002F05EFA08214BF2015002F0EF
:1036300059FA08214BF2025002F054FA03214FF4D8
:10364000424002F04FFA24214FF43A4002F04AFA85
:1036500024214BF6012002F045FA24214BF60220EA
:1036600002F040FA00214FF43C4002F03BFA78218E
:103670004BF6014002F036FA00214BF6024002F010
:1036800031FA00214FF43D4002F02CFA78214BF63C
:10369000015002F027FA00214BF6025002F022FA04
:1036A00000214FF43E4002F01DFA64214BF6016008
:1036B00002F018FA00214FF4514002F013FA3321BE
:1036C0004DF2011002F00EFA00214DF2021002F04C
:1036D00009FA34214DF2031002F004FA00214DF2F0
:1036E000041002F0FFF93A214DF2051002F0FAF948
:1036F00000214DF2061002F0F5F94A214DF20710B3
:1037000002F0F0F900214DF2081002F0EBF95C2113
:103710004DF2091002F0E6F900214DF20A1002F014
:10372000E1F981214DF20B1002F0DCF900214DF29C
:103730000C1002F0D7F9A6214DF20D1002F0D2F9CB
:1037400000214DF20E1002F0CDF9E5214DF20F10DF
:1037500002F0C8F901214DF2101002F0C3F9132153
:103760004DF2111002F0BEF901214DF2121002F0DB
:10377000B9F954214DF2131002F0B4F901214DF2C0
:10378000141002F0AFF982214DF2151002F0AAF9DF
:1037900001214DF2161002F0A5F9CA214DF21710C1
:1037A00002F0A0F902214DF2181002F09BF900215D
:1037B0004DF2191002F096F902214DF21A1002F0A2
:1037C00091F901214DF21B1002F08CF902214DF20A
:1037D0001C1002F087F934214DF21D1002F082F91D
:1037E00002214DF21E1002F07DF967214DF21F10EB
:1037F00002F078F902214DF2201002F073F98421D1
:103800004DF2211002F06EF902214DF2221002F069
:1038100069F9A4214DF2231002F064F902214DF25E
:10382000241002F05FF9B7214DF2251002F05AF989
:1038300002214DF2261002F055F9CF214DF227104A
:1038400002F050F902214DF2281002F04BF9DE216E
:103850004DF2291002F046F902214DF22A1002F031
:1038600041F9F2214DF22B1002F03CF902214DF208
:103870002C1002F037F9FE214DF22D1002F032F932
:1038800003214DF22E1002F02DF910214DF22F10D0
:1038900002F028F903214DF2301002F023F9332110
:1038A0004DF2311002F01EF903214DF2321002F0F8
:1038B00019F96D214DF2331002F014F900214FF483
:1038C000524002F00FF933214DF2012002F00AF9C3
:1038D00000214DF2022002F005F934214DF20320BF
:1038E00002F000F900214DF2042002F0FBF83A2129
:1038F0004DF2052002F0F6F800214DF2062002F00C
:10390000F1F84A214DF2072002F0ECF800214DF2C7
:10391000082002F0E7F85C214DF2092002F0E2F8FD
:1039200000214DF20A2002F0DDF881214DF20B203A
:1039300002F0D8F800214DF20C2002F0D3F8A621B5
:103940004DF20D2002F0CEF800214DF20E2002F0D3
:10395000C9F8E5214DF20F2002F0C4F801214DF223
:10396000102002F0BFF813214DF2112002F0BAF836
:1039700001214DF2122002F0B5F854214DF213202E
:1039800002F0B0F801214DF2142002F0ABF88221D0
:103990004DF2152002F0A6F801214DF2162002F09A
:1039A000A1F8CA214DF2172002F09CF802214DF235
:1039B000182002F097F800214DF2192002F092F839
:1039C00002214DF21A2002F08DF801214DF21B2048
:1039D00002F088F802214DF21C2002F083F8342115
:1039E0004DF21D2002F07EF802214DF21E2002F061
:1039F00079F867214DF21F2002F074F802214DF290
:103A0000202002F06FF884214DF2212002F06AF8A4
:103A100002214DF2222002F065F8A4214DF223206C
:103A200002F060F802214DF2242002F05BF8B72189
:103A30004DF2252002F056F802214DF2262002F028
:103A400051F8CF214DF2272002F04CF802214DF21F
:103A5000282002F047F8DE214DF2292002F042F83A
:103A600002214DF22A2002F03DF8F2214DF22B20E6
:103A700002F038F802214DF22C2002F033F8FE213A
:103A80004DF22D2002F02EF803214DF22E2002F0EF
:103A900029F810214DF22F2002F024F803214DF2D5
:103AA000302002F01FF833214DF2312002F01AF8D5
:103AB00003214DF2322002F015F86D214DF2332032
:103AC00002F010F800214FF4534002F00BF83321BC
:103AD0004DF2013002F006F800214DF2023002F002
:103AE00001F834214DF2033001F0FCFF00214DF2CA
:103AF000043001F0F7FF3A214DF2053001F0F2FFFA
:103B000000214DF2063001F0EDFF4A214DF2073061
:103B100001F0E8FF00214DF2083001F0E3FF5C21E5
:103B20004DF2093001F0DEFF00214DF20A3001F0C4
:103B3000D9FF81214DF20B3001F0D4FF00214DF26D
:103B40000C3001F0CFFFA6214DF20D3001F0CAFF7D
:103B500000214DF20E3001F0C5FFE5214DF20F308E
:103B600001F0C0FF01214DF2103001F0BBFF132125
:103B70004DF2113001F0B6FF01214DF2123001F08B
:103B8000B1FF54214DF2133001F0ACFF01214DF291
:103B9000143001F0A7FF82214DF2153001F0A2FF91
:103BA00001214DF2163001F09DFFCA214DF2173070
:103BB00001F098FF02214DF2183001F093FF00212F
:103BC0004DF2193001F08EFF02214DF21A3001F052
:103BD00089FF01214DF21B3001F084FF02214DF2DB
:103BE0001C3001F07FFF34214DF21D3001F07AFFCF
:103BF00002214DF21E3001F075FF67214DF21F309A
:103C000001F070FF02214DF2203001F06BFF8421A2
:103C10004DF2213001F066FF02214DF2223001F019
:103C200061FFA4214DF2233001F05CFF02214DF22F
:103C3000243001F057FFB7214DF2253001F052FF3B
:103C400002214DF2263001F04DFFCF214DF22730F9
:103C500001F048FF02214DF2283001F043FFDE2140
:103C60004DF2293001F03EFF02214DF22A3001F0E1
:103C700039FFF2214DF22B3001F034FF02214DF2D9
:103C80002C3001F02FFFFE214DF22D3001F02AFFE4
:103C900003214DF22E3001F025FF10214DF22F307F
:103CA00001F020FF03214DF2303001F01BFF3321E2
:103CB0004DF2313001F016FF03214DF2323001F0A8
:103CC00011FF6D214DF2333001F00CFF00214FF454
:103CD000544001F007FF332100E080E34DF2014042
:103CE00001F000FF00214DF2024001F0FBFE342103
:103CF0004DF2034001F0F6FE00214DF2044001F0C8
:103D0000F1FE3A214DF2054001F0ECFE00214DF2AA
:103D1000064001F0E7FE4A214DF2074001F0E2FEC5
:103D200000214DF2084001F0DDFE5C214DF209401A
:103D300001F0D8FE00214DF20A4001F0D3FE8121AE
:103D40004DF20B4001F0CEFE00214DF20C4001F08F
:103D5000C9FEA6214DF20D4001F0C4FE00214DF236
:103D60000E4001F0BFFEE5214DF20F4001F0BAFE1A
:103D700001214DF2104001F0B5FE13214DF211402A
:103D800001F0B0FE01214DF2124001F0ABFE5421D2
:103D90004DF2134001F0A6FE01214DF2144001F056
:103DA000A1FE82214DF2154001F09CFE01214DF251
:103DB000164001F097FECA214DF2174001F092FE25
:103DC00002214DF2184001F08DFE00214DF2194004
:103DD00001F088FE02214DF21A4001F083FE00E05E
:103DE00000E301214DF21B4001F07CFE02214DF267
:103DF0001C4001F077FE34214DF21D4001F072FEAF
:103E000002214DF21E4001F06DFE67214DF21F4070
:103E100001F068FE02214DF2204001F063FE842192
:103E20004DF2214001F05EFE02214DF2224001F0F0
:103E300059FEA4214DF2234001F054FE02214DF21F
:103E4000244001F04FFEB7214DF2254001F04AFE1B
:103E500002214DF2264001F045FECF214DF22740D0
:103E600001F040FE02214DF2284001F03BFEDE2130
:103E70004DF2294001F036FE02214DF22A4001F0B8
:103E800031FEF2214DF22B4001F02CFE02214DF2C9
:103E90002C4001F027FEFE214DF22D4001F022FEC4
:103EA00003214DF22E4001F01DFE10214DF22F4056
:103EB00001F018FE03214DF2304001F013FE3321D2
:103EC0004DF2314001F00EFE03214DF2324001F07F
:103ED00009FE6D214DF2334001F004FE00214FF444
:103EE000554001F0FFFD33214DF2015001F0FAFD84
:103EF00000214DF2025001F0F5FD34214DF2035046
:103F000001F0F0FD00214DF2045001F0EBFD3A21EB
:103F10004DF2055001F0E6FD00214DF2065001F092
:103F2000E1FD4A214DF2075001F0DCFD00214DF288
:103F3000085001F0D7FD5C214DF2095001F0D2FD8F
:103F400000214DF20A5001F0CDFD81214DF20B50C0
:103F500001F0C8FD00214DF20C5001F0C3FDA62177
:103F60004DF20D5001F0BEFD00214DF20E5001F05A
:103F7000B9FDE5214DF20F5001F0B4FD01214DF2E4
:103F8000105001F0AFFD13214DF2115001F0AAFDC8
:103F900001214DF2125001F0A5FD54214DF21350B4
:103FA00001F0A0FD01214DF2145001F09BFD822192
:103FB0004DF2155001F096FD01214DF2165001F021
:103FC00091FDCA214DF2175001F08CFD02214DF2F6
:103FD000185001F087FD00214DF2195001F082FDCB
:103FE00002214DF21A5001F07DFD01214DF21B50CE
:103FF00001F078FD02214DF21C5001F073FD3421D7
:104000004DF21D5001F06EFD02214DF21E5001F0E7
:1040100069FD67214DF21F5001F064FD02214DF250
:10402000205001F05FFD84214DF2215001F05AFD36
:1040300002214DF2225001F055FDA4214DF22350F2
:1040400001F050FD02214DF2245001F04BFDB7214B
:104050004DF2255001F046FD02214DF2265001F0AF
:1040600041FDCF214DF2275001F03CFD02214DF2E0
:10407000285001F037FDDE214DF2295001F032FDCC
:1040800002214DF22A5001F02DFDF2214DF22B506C
:1040900001F028FD02214DF22C5001F023FDFE21FC
:1040A0004DF22D5001F01EFD03214DF22E5001F076
:1040B00019FD10214DF22F5001F014FD03214DF296
:1040C000305001F00FFD33214DF2315001F00AFD67
:1040D00003214DF2325001F005FD6D214DF23350B8
:1040E00001F000FD00214FF4564001F0FBFC3321AC
:1040F0004DF2016001F0F6FC00214DF2026001F08A
:10410000F1FC34214DF2036001F0ECFC00214DF292
:10411000046001F0E7FC3A214DF2056001F0E2FC99
:1041200000214DF2066001F0DDFC4A214DF20760EE
:1041300001F0D8FC00214DF2086001F0D3FC5C21B5
:104140004DF2096001F0CEFC00214DF20A6001F051
:10415000C9FC81214DF20B6001F0C4FC00214DF23D
:104160000C6001F0BFFCA6214DF20D6001F0BAFC1D
:1041700000214DF20E6001F0B5FCE5214DF20F601B
:1041800001F0B0FC01214DF2106001F0ABFC1321F5
:104190004DF2116001F0A6FC01214DF2126001F018
:1041A000A1FC54214DF2136001F09CFC01214DF261
:1041B000146001F097FC82214DF2156001F092FC31
:1041C00001214DF2166001F08DFCCA214DF21760FD
:1041D00001F088FC02214DF2186001F083FC0021FF
:1041E0004DF2196001F07EFC02214DF21A6001F0DF
:1041F00079FC01214DF21B6001F074FC02214DF2AB
:104200001C6001F06FFC34214DF21D6001F06AFC6E
:1042100002214DF21E6001F065FC67214DF21F6026
:1042200001F060FC02214DF2206001F05BFC842172
:104230004DF2216001F056FC02214DF2226001F0A6
:1042400051FCA4214DF2236001F04CFC02214DF2FF
:10425000246001F047FCB7214DF2256001F042FCDB
:1042600002214DF2266001F03DFCCF214DF2276086
:1042700001F038FC02214DF2286001F033FCDE2110
:104280004DF2296001F02EFC02214DF22A6001F06E
:1042900029FCF2214DF22B6001F024FC02214DF2A9
:1042A0002C6001F01FFCFE214DF22D6001F01AFC84
:1042B00003214DF22E6001F015FC10214DF22F600C
:1042C00001F010FC03214DF2306001F00BFC3321B2
:1042D0004DF2316001F006FC03214DF2326001F035
:1042E00001FC6D214DF2336001F0FCFB55211846B5
:1042F00001F0F8FBAA21204601F0F4FB52212846E8
:1043000001F0F0FB0821304601F0ECFB00213846BB
:1043100001F0E8FBCC21484601F0E4FB00215846BF
:1043200001F0E0FB0521404601F0DCFB70214FF479
:10433000374001F0D7FB70214BF2017001F0D2FB46
:1043400001214FF4384001F0CDFB03214BF6010071
:1043500001F0C8FB03214BF6020001F0C3FB03216F
:104360004BF6030001F0BEFB02214FF43C4001F08C
:10437000B9FB00214BF6014001F0B4FB00214BF6E4
:10438000024001F0AFFBD0214FF4494001F0AAFBFD
:1043900002214CF6011001F0A5FB50214CF6021051
:1043A00001F0A0FB50214CF6031001F09BFB5021C3
:1043B0004CF6041001F096FB00214FF4545001F02C
:1043C00091FB55214FF4685001F08CFB4FF488505D
:1043D00001F072FB7820FCF7CDF84FF4245001F087
:1043E0006BFBFDE0A0F513414FF480744FF4E069DE
:1043F00040F2022B4FF4274725397CD0A0F513411A
:1044000040F20776283977D0A0F513414FF4887829
:104410004FF41C57203970D0A0F5134131396DD0BD
:10442000A0F5A84108396AD0A0F5A8514FF440780A
:10443000053965D0A0F5354105397CD0A0F5454159
:10444000053979D0A0F58A41313976D0A0F58A4175
:10445000353973D0A842C4D1E22001F02DFB1D20D4
:1044600001F01EFB022001F01BFB042001F018FBF1
:104470000120FCF77FF8E02001F01EFB012001F095
:104480000FFB0A20FCF776F8E02001F015FB032073
:1044900001F006FB0C20FCF76DF8012001F00CFB8D
:1044A0000A20FCF767F8E62001F006FB2F2001F058
:1044B000F7FAFF2001F0F4FAFF2001F0F1FAB02042
:1044C00001F0FAFA202001F0EBFA002001F0E8FAFE
:1044D000032001F0E5FA40F21F3001F0E1FA01207B
:1044E00001F0DEFA40F2DF1001F0DAFA002001F00C
:1044F000D7FAB42005E080E04BE103E2AAE27FE3D3
:10450000FEE301F0D9FA042001F0CAFA40F21F409C
:1045100001F0C6FA002001F0C3FA2E2001F0C0FA23
:10452000002001F0BDFA002001F0BAFA002001F0ED
:10453000B7FA002003E0FDE3FDE3FDE3FDE301F056
:10454000AFFAB62001F0B8FA022001F0A9FA4FF450
:10455000037001F0A5FA002001F0A2FA172001F083
:104560009FFA152001F09CFA002001F099FA002032
:1045700001F096FAF02001F09FFA032001F090FA82
:10458000292001F099FAD02001F096FA002001F0DC
:1045900087FABE2001F090FA052001F081FAFE2092
:1045A00001F07EFA012001F07BFA002001F078FA98
:1045B000002001F075FA002001F072FAB82001F035
:1045C0007BFA032001F06CFA012001F069FABA20AD
:1045D00001F072FA012001F063FA642000F0F4FFA8
:1045E0000020FDF7E1FB0122D103FE48FCF709F9A9
:1045F0005046BDE8F84FFDF7A3BB47F6F001E520B4
:1046000001F070FA2146012001F06CFA49460220BF
:1046100001F068FA41F23001032001F063FA002151
:10462000042001F05FFA5946082001F05BFA0021EE
:10463000092001F057FA00210A2001F053FA002165
:104640000C2001F04FFA00210D2001F04BFA00215F
:104650000F2001F047FA0021102001F043FA072152
:10466000112001F03FFA0021122001F03BFA002155
:10467000132001F037FA0021072001F033FA41F24C
:104680009061102001F02EFA40F22721112001F054
:1046900029FA9D21122001F025FA4FF4C851132068
:1046A00001F020FA2521292001F01CFA0D212B20F0
:1046B00001F018FA0721302001F014FA40F203311A
:1046C000312001F00FFA0321322001F00BFA40F201
:1046D0000621352001F006FA0821362001F002FA01
:1046E00040F20641372001F0FDF94FF441713820C6
:1046F00001F0F8F90721392001F0F4F940F20261E4
:104700003C2001F0EFF908213D2001F0EBF90021F8
:10471000502001F0E7F9EF21512001F0E3F90021E9
:10472000522001F0DFF940F23F11532001F0DAF995
:104730003946602001F0D6F90121612001F0D2F95B
:1047400000216A2001F0CEF90021802001F0CAF991
:104750000021812001F0C6F90021822001F0C2F978
:104760000021832001F0BEF90021842001F0BAF974
:104770000021852001F0B6F91021902001F0B2F956
:104780004FF4C061922001F0ADF940F233110720DF
:10479000FEE341F28F01EC2001F0A4F941F2342153
:1047A000EF2001F09FF92146012001F09BF94946D5
:1047B000022001F097F941F23001032001F092F953
:1047C0000021042001F08EF95946082001F08AF9F1
:1047D0000021092001F086F900210A2001F082F968
:1047E00001210C2001F07EF900210D2001F07AF961
:1047F00000210F2001F076F90021102001F072F95C
:104800000721112001F06EF90021122001F06AF950
:104810000021132001F066F90121072001F062F95F
:104820003220FBF7A7FE41F29041102001F05AF927
:1048300040F22721112001F055F93220FBF79AFEB2
:104840008A21122001F04EF93220FBF793FE4FF43B
:10485000D051132001F046F90621292001F042F938
:104860000D212B2001F03EF93220FBF783FE0021C1
:10487000202001F037F90021212001F033F9322006
:10488000FBF778FE0021302001F02CF940F20461A2
:10489000312001F027F940F20531322001F022F9F0
:1048A0000021352001F01EF940F60941362001F0C3
:1048B00019F94FF40171372001F014F940F2013178
:1048C000382001F00FF93146392001F00BF90021B1
:1048D0003C2001F007F940F60A213D2001F002F9E1
:1048E0003220FBF747FE0021502001F0FBF8EF21BA
:1048F000512001F0F7F80021522001F0F3F840F2C6
:104900003F114EE10021084601F0ECF8214601205C
:1049100001F0E8F84946022001F0E4F841F23001E4
:10492000032001F0DFF80021042001F0DBF85946F4
:10493000082001F0D7F80021092001F0D3F8002168
:104940000A2001F0CFF801210C2001F0CBF8002162
:104950000D2001F0C7F800210F2001F0C3F832202C
:10496000FBF708FE40F20111072001F0BBF83220EE
:10497000FBF700FE4FF48651102001F0B3F8072139
:10498000112001F0AFF843464146122001F0AAF889
:104990004FF43061132001F0A5F80021292001F027
:1049A000A1F844F210012B2001F09CF800215020C6
:1049B00001F098F8EF21512001F094F800215220E5
:1049C00001F090F840F23F11532001F08BF8394686
:1049D000602001F087F80121612001F083F80021B7
:1049E0006A2001E00004024001F07CF800218020F0
:1049F00001F078F80021812001F074F80021822074
:104A000001F070F80021832001F06CF8002184206F
:104A100001F068F80021852001F064F81021902051
:104A200001F060F80021922001F05CF80121932050
:104A300001F058F81946952001F054F8002197200C
:104A400001F050F80021982001F04CF840F2731169
:104A5000072080E341F21401E72001F043F82146EA
:104A6000012001F03FF84FF40071022001F03AF804
:104A700041F23801032001F035F85946082001F0D1
:104A800031F80021092001F02DF800210A2001F061
:104A900029F800210C2001F025F800210D2001F05B
:104AA00021F800210F2001F01DF80021102001F055
:104AB00019F80721112001F015F80021122001F04A
:104AC00011F80021132001F00DF8C820FBF752FD6A
:104AD00041F29061102001F005F840F227211120E9
:104AE00001F000F83220FBF745FD0C21122000F008
:104AF000F9FF3220FBF73EFD4FF40061132000F078
:104B0000F1FF1121292000F0EDFF0B212B2000F0F7
:104B1000E9FF3220FBF72EFD0021202000F0E2FF0C
:104B200040F23F131946212000F0DCFF0021302025
:104B300000F0D8FF4FF483742146312000F0D2FFFB
:104B40000021322000F0CEFF4FF40171352000F03B
:104B5000C9FF41F20A61362000F0C4FF3146372018
:104B600000F0C0FF2146382000F0BCFF314639205C
:104B700000F0B8FF40F202413C2000F0B3FF40F6E5
:104B80000F413D2000F0AEFF0021502000F0AAFFB1
:104B9000EF21512000F0A6FF0021522000F0A2FFDB
:104BA0001946532000F09EFF3946602000F09AFF1E
:104BB0000121612000F096FF00216A2000F092FFA1
:104BC0000021802000F08EFF0021812000F08AFF6C
:104BD0000021822000F086FF0021832000F082FF68
:104BE0000021842000F07EFF0021852000F07AFF64
:104BF0001021902000F076FF4FF4C0619220FDE379
:104C00002146012000F06EFF4946022000F06AFFB5
:104C100041F23001032000F065FF0021042000F084
:104C200061FF40F20721082000F05CFF002109200D
:104C300000F058FF00210A2000F054FF00210C2052
:104C400000F050FF00210D2000F04CFF00210F204C
:104C500000F048FF1420FBF78DFC41F2B0611020FA
:104C600000F040FF0121112000F03CFF012117203E
:104C700000F038FF4FF49C71122000F033FF4FF426
:104C80000061132000F02EFF0921292000F02AFFE7
:104C900009212A2000F026FF0021A42000F022FF95
:104CA0000021502000F01EFFEF21512000F01AFFDC
:104CB0000021522000F016FF40F23F11532000F077
:104CC00011FF3946602000F00DFF0121612000F046
:104CD00009FF00216A2000F005FF0021802000F07C
:104CE00001FF0021812000F0FDFE0021822000F064
:104CF000F9FE0021832000F0F5FE0021842000E071
:104D000021E000F0EFFE0021852000F0EBFE1321F2
:104D1000902000F0E7FE0021922000F0E3FE032146
:104D2000932000F0DFFE4146952000F0DBFE40F2CC
:104D3000731103E013E10FE2D7E28CE3072000F0E8
:104D4000D1FE322007E10021072000F0CBFE322007
:104D5000FBF710FC4FF48E71122000F0C3FE01210E
:104D6000A42000F0BFFE0F21082000F0BBFE0821A8
:104D70000A2000F0B7FE08210D2000F0B3FE3146F6
:104D8000302000F0AFFE0721312000F0ABFE40F2F2
:104D90000361322000F0A6FE4D464946332000F064
:104DA000A1FE5946342000F09DFE0221352000F07E
:104DB00099FE41F60F71362000F094FE31463720FF
:104DC00000F090FE0021382000F08CFE00213920F8
:104DD00000F088FE31463A2000F084FE00213B209E
:104DE00000F080FE07213C2000F07CFE00213D20E9
:104DF00000F078FE3220FBF7BDFB0121072000F018
:104E000071FE0121172000F06DFE3220FBF7B2FB8E
:104E10004FF4BD51102000F065FE40F21721112023
:104E200000F060FE4FF48F71122000F05BFE4FF433
:104E30007061132000F056FE00212A2000F052FE7F
:104E40000A21292000F04EFE4FF49F71122000F03D
:104E500049FE0021502000F045FEEF21512000F0D6
:104E600041FE0021522000F03DFE40F23F11532050
:104E700000F038FE3946602000F034FE0121612048
:104E800000F030FE00216A2000F02CFE002180207E
:104E900000F028FE0021812000F024FE0021822065
:104EA00000F020FE0021832000F01CFE0021842061
:104EB00000F018FE0021852000F014FE1321902040
:104EC00000F010FE4146922000F00CFE05219320D8
:104ED00000F008FE0021952000F004FE002197203C
:104EE00000F000FE0021982000F0FCFD214601208A
:104EF00000F0F8FD2946022000F0F4FD41F23801EF
:104F0000032000F0EFFD0021042000F0EBFD002164
:104F10000C2000F0E7FD00210F2000F0E3FD002150
:104F2000202000F0DFFD0021212000F0DBFD212109
:104F3000072000F0D7FD1420FBF71CFB61210720A0
:104F400000F0D0FD1420FBF715FB40F27311072091
:104F500000F0C8FD1420FBF70DFBFFF741BB00215B
:104F6000084600F0BFFD0021084600F0BBFD00210F
:104F7000084600F0B7FD0021084600F0B3FD01210E
:104F8000A42000F0AFFD1420FBF7F4FA394600E04E
:104F9000DDE0602000F0A6FD5D465946082000F0E7
:104FA000A1FD4FF40571302000F09CFD43F2157116
:104FB000312000F097FD40F20461322000F092FDB4
:104FC00040F61661332000F08DFD42F211213420AD
:104FD00000F088FD4FF4A851352000F083FD48F221
:104FE0000751362000F07EFD41F20741372000F0E6
:104FF00079FD41F20341382000F074FD2021392071
:1050000000F070FD1A21902000F06CFD00211020AE
:1050100000F068FD0721112000F064FD002112203E
:1050200000F060FD0021132000F05CFD1420FBF770
:10503000A1FA4FF4E661102000F054FD40F2371160
:10504000112000F04FFD1420FBF794FA4FF4DC71AF
:10505000122000F047FD1420FBF78CFA4FF470612A
:10506000132000F03FFD80212A2000F03BFD482165
:10507000292000F037FD1420FBF77CFA214601209F
:1050800000F030FD4946022000F02CFD41F23801CD
:10509000032000F027FD2946082000F023FD002111
:1050A0000A2000F01FFD00210C2000F01BFD002154
:1050B0000D2000F017FD30210E2000F013FD00211F
:1050C000502000F00FFDEF21512000F00BFD0021DA
:1050D000522000F007FD40F23F11532000F002FD86
:1050E0003946602000F0FEFC0121612000F0FAFC4E
:1050F00000216A2000F0F6FC1121902000F0F2FC63
:105100004FF4C061922000F0EDFC40F20241932088
:1051100000F0E8FC0221942000F0E4FC1420FBF7EE
:1051200029FA0121072000F0DDFC1420FBF722FA08
:105130006121072000F0D6FC40F27311072000F037
:10514000D1FC0021202000F0CDFC0021212000F026
:10515000C9FC222100207BE10021084600F0C2FCAE
:105160000021084600F0BEFC1420FBF703FA0021E2
:10517000084600F0B7FC0021084600F0B3FC00210F
:10518000084600F0AFFC0021084600F0ABFC01210E
:10519000A42000F0A7FC1420FBF7ECF939466020AE
:1051A00000F0A0FC40F60601082000F09BFC40F255
:1051B00003731946302000F095FC0121312000F0E6
:1051C00091FC0421322000F08DFC4FF481713320DA
:1051D00000F088FC45464146342000F083FC40F254
:1051E0000311352000F07EFC1F21362000F07AFCF0
:1051F0001946372000F076FC0121382000F072FCBF
:105200000421392000F06EFC1521902000F06AFC8A
:105210004FF48261102000F065FC40F2472111201C
:1052200000F060FC4FF4DE71122000F05BFC4FF4E4
:105230006061132000F056FC7820FBF79BF92146B3
:10524000012000F04FFC4FF40071022000F04AFCF6
:1052500041F23001032000F045FC08210A2000F053
:1052600041FC00210C2000F03DFC20210E2000F02C
:1052700039FC00210F2000F035FC0021202000F037
:1052800031FC0021212000F02DFC3D212A2000F0DE
:1052900029FC1420FBF76EF92D21292000F022FCB7
:1052A0000021502000F01EFC4DF2EF01512000F0D3
:1052B00019FC0021522000F015FC40F23F11532050
:1052C00000F010FC0021612000F00CFC00216A209D
:1052D00000F008FC2946922000F004FC05219320F0
:1052E00000F000FC2146FFF7B3BB0121002000F0D5
:1052F000F9FB0A20FBF73EF941F22861102000F08B
:10530000F1FB0E21122000F0EDFB40F639211320B5
:1053100000F0E8FB0A20FBF72DF94021112000F0F6
:10532000E1FB5021152000F0DDFB0A20FBF722F9FC
:105330001E21122000F0D6FB0A20FBF71BF94FF4C8
:10534000B151102000F0CEFB42F63921132000F0BD
:10535000C9FB0A20FBF70EF92146012000F0C2FB31
:105360004146022000F0BEFB41F23801032000F06C
:10537000B9FB5946082000F0B5FB08210A2000F0CF
:10538000B1FB0021302000F0ADFB40F202413120A2
:1053900000F0A8FB4FF48371322000F0A3FB40F231
:1053A0000351332000F09EFB4FF48271342000F053
:1053B00099FB40F20131352000F094FB3146362054
:1053C00000F090FB40F20531372000F08BFB4FF4EA
:1053D0000271382000F086FB40F60B71392000F096
:1053E00081FB0221412000F07DFB3946602000F066
:1053F00079FB0121612000F075FB00E0CDE04FF466
:105400000471902000F06EFB4FF48571922000F043
:1054100069FB0421932000F065FB2146A02000F0E9
:1054200061FB0121072000F05DFB2121072000F036
:1054300059FB2321072000F055FB3321072000F002
:1054400051FB40F23311072000F04CFB0021A0205B
:1054500000F048FB81E53021152000F043FB1021CE
:105460009A2000F03FFB2021112000F03BFB43F28B
:105470002841102000F036FB0221122000F032FB00
:1054800041F23801132000F02DFB2820FBF772F8C1
:105490001221084600F026FB2820FBF76BF843F2A8
:1054A0002041102000F01EFB43F23801132000F0D1
:1054B00019FB4620FBF75EF80021302000F012FBBC
:1054C00040F20241312000F00DFB40F20731322062
:1054D00000F008FB4FF44171332000F003FB04217E
:1054E000342000F0FFFA40F20141352000F0FAFAD2
:1054F0003146362000F0F6FA40F20531372000F050
:10550000F1FA4FF4C2631946382000F0EBFA19465D
:10551000392000F0E7FA2146012000F0E3FA414685
:10552000022000F0DFFA41F23001032000F0DAFA45
:1055300040F60801082000F0D5FA08210A2000F002
:10554000D1FA3946602000F0CDFA0121612000F047
:10555000C9FA4FF49F71902000F0C4FA21469220BE
:1055600000F0C0FA2146932000F0BCFA4FF44051FD
:10557000A02000F0B7FA1021A32000F0B3FA012117
:10558000072000F0AFFA2121072000F0ABFA232119
:10559000072000F0A7FA3321072000F0A3FA40F219
:1055A0003311A0E608B54FF0D840B0F88000ADF850
:1055B0000000BDF8000008BD00B500F07DFA5DF800
:1055C00004EBFFF7EFBF000010B50246BE2000F06D
:1055D00073FA052000F064FA1046FAF7A6FE9FED74
:1055E0000C1B53EC112BFAF72EFEFAF7ABFE80B230
:1055F00000F056FA012000F053FAFF2000F050FAB4
:10560000002000F04DFABDE81040002000F048BA3C
:105610006666666666660440F0B57F4C00232146E8
:10562000A579898846F6040241F66316012D01D05A
:105630002DB11DE091421BD0B14202D118E0B14220
:1056400016D1082814D2DFE800F00406080A0C0E70
:10565000101206200CE007200AE0042008E00520D4
:1056600006E0012004E0002002E0032000E0022028
:10567000A1F5134C45F2103745F21055BCF1410C21
:1056800007D0914205D0B94203D0A94201D0B1421E
:105690007BD1082812D2DFE800F0110406080A0CBA
:1056A0000E1080230AE0402308E0C02306E02023F8
:1056B00004E0602302E0A02300E0E023A94202D13D
:1056C0004FF4585000E03620B94205D0A94203D02B
:1056D000B14201D043F00803914201D143F00203EB
:1056E000194600F0FFF9A188B1420AD09806208837
:1056F000628802D5904202D303E0904201D9228011
:1057000060806089A94241D100F0D6F9002000F004
:10571000C7F96089401C80B200F0CEF9002000F08B
:10572000BFF96089801C80B200F0C6F92088401E55
:10573000C0F30F2000F0B4F96089C01C80B200F003
:10574000BBF92078401EC0B200F0AAF9A08900F091
:10575000B3F9002000F0A4F9A089401C80B200F049
:10576000ABF9002000F09CF9A089801C80B200F009
:10577000A3F96088401EC0F30F2000F091F9A089C2
:10578000C01C80B200F098F922E028E000F094F903
:10579000002000F085F9002000F082F92088401EEA
:1057A000C0F30F2000F07CF92078401EC0B200F05A
:1057B00077F9A08900F080F9002000F071F900204D
:1057C00000F06EF96088401EC0F30F2000F068F909
:1057D000A078BDE8F040401EC0B200F061B90828D2
:1057E00012D2DFE800F0040608110A0C0E10302374
:1057F0000AE0102308E0202306E0382304E02823F1
:1058000002E0182300E00823BDE8F040032043F441
:10581000805100F067B900007E0000202DE9F043C0
:10582000DFF850810C4602464FEA1129B8F804000F
:105830004146150A4B89A0F51346413E17D0A0F505
:10584000A641103913D04646A0F5D047B179368825
:10585000B61A761E043F0FD0A0F5C857633F20D07C
:10586000A0F5AA47103F5BD0012977D077E0184612
:1058700000F022F9284606E0012900D1B2B218460C
:1058800000F01AF9100A00F00BF9D0B200F008F994
:10589000B8F80C0000F010F9484600F001F9E0B249
:1058A0002BE071B3184600F007F9284600F0F8F82D
:1058B000D0B200F0F5F8B8F80000401EC0F30F2099
:1058C00000F0EEF898F80000401EC0B200F0E8F8D2
:1058D000B8F80C0000F0F0F8484600F0E1F8E0B24B
:1058E00000F0DEF8B8F80200401EC0F30F2000F010
:1058F000D7F898F80200401EC0B2BDE8F04300F0AF
:10590000CFB8B2B2184600F0D7F8002000F0C8F8BF
:10591000002000F0C5F8100A00F0C2F8D0B2D5E7B8
:10592000184600F0C9F8284600F0BAF8B8F80A009E
:10593000401C80B200F0C0F8D0B200F0B1F8B8F866
:105940000C0000F0B9F8484600F0AAF8B8F80C00CE
:10595000401C80B200F0B0F8A1E7FFE7B2B21146F8
:10596000184600F0BFF8B8F80C002146BDE8F04337
:1059700000F0B8B87E0000202DE9FF4F1D460C4610
:105980008A46580700D0012000EBD500690810FBBB
:1059900001F0203A00F0FF09D0B20026DFF898B0FD
:1059A000029044E00C2D11D0102D14D0182D40D1B0
:1059B0000298224900EBC00001EB80004FF0000884
:1059C000875D38060CD51E4802880DE002981D49F7
:1059D00000EB4000F0E71C49029801EB0010EDE7F6
:1059E0000D9828B91648428821460098FCF776FAA7
:1059F0007806070E641CBBF80200A4B2A04218D9B6
:105A0000A4EB0A00A84209D100985446401C80B279
:105A10000090BBF8001081420BD906E008F10100AC
:105A200000F0FF08B8F1080FCBD3761CF6B24E4554
:105A3000B8D3BDE8FF8F00007E0000204E7F000835
:105A400010000020EA7400085E7900082DE9F84F84
:105A5000044600F0FF0910190D46DDE90AB61FFAE9
:105A600080F8581987B24FF0000A12E0444503D37A
:105A700005EB0B004C4685B2BD420FD25B46294672
:105A80002046CDF800A0FFF777FF04EB5B0084B25F
:105A9000761C3278A2F120005E28E7D9BDE8F88FA5
:105AA00001B5BDF80000ADF80000BDF800004FF0F2
:105AB000D841A1F8800008BD01B5BDF80000ADF8DF
:105AC0000000BDF800004FF0D841A1F87E0008BDED
:105AD00003484FF0D8410089A1F87E0070470000CC
