:020000040800F2
:10000000880400209D0100084B1100086B0E0008B9
:1000100049110008A9020008CB13000800000000E5
:10002000000000000000000000000000CF110008E8
:10003000AB02000800000000CD110008D11100083B
:10004000B7010008B7010008B7010008B7010008B0
:10005000B7010008B7010008B7010008B7010008A0
:10006000B7010008B7010008B7010008B701000890
:10007000B7010008B7010008B7010008B701000880
:10008000B7010008B7010008B7010008B701000870
:10009000B7010008B7010008B7010008B701000860
:1000A000B7010008B7010008B7010008B701000850
:1000B00079120008B7010008B7010008B70100086D
:1000C000B7010008B7010008B7010008B701000830
:1000D000B7010008B7010008B7010008B701000820
:1000E000B7010008B7010008B7010008B701000810
:1000F000B7010008B7010008B7010008B701000800
:10010000B7010008B7010008B7010008B7010008EF
:10011000B7010008B7010008B7010008B7010008DF
:10012000B7010008B7010008B7010008B7010008CF
:10013000B7010008B7010008B7010008B7010008BF
:10014000B7010008B7010008B7010008B7010008AF
:10015000B7010008B7010008B7010008B70100089F
:10016000B7010008B7010008B7010008B70100088F
:10017000B7010008B7010008B7010008000000003F
:10018000B7010008B7010008DFF80CD000F07AF8DA
:10019000004800470D1400088804002006488047E6
:1001A00006480047FEE7FEE7FEE7FEE7FEE7FEE75C
:1001B000FEE7FEE7FEE7FEE75D12000889010008A2
:1001C0002DE9F05F0546002092469B46884606468C
:1001D000814640241BE0284641464746224600F01F
:1001E00041F853465A46C01A914110D31146184659
:1001F000224600F028F82D1A67EB01084F462246E8
:100200000120002100F01FF817EB00094E41201ECD
:10021000A4F10104DFDC484631462A464346BDE8E6
:10022000F09FD2B201E000F8012B491EFBD27047CB
:100230000022F6E710B513460A4604461946FFF7B2
:10024000F0FF204610BD202A04DB203A00FA02F11C
:10025000002070479140C2F1200320FA03F31943B4
:1002600090407047202A04DB203A21FA02F0002156
:10027000704721FA02F3D040C2F1200291400843B6
:1002800019467047064C074D06E0E06840F0010350
:1002900094E8070098471034AC42F6D3FFF778FF94
:1002A0005C1400087C140008FEE7704770470000EB
:1002B0002DE9F84F00224FF0010803254FF00F0EF3
:1002C0000B6808FA02F42340A3426ED14E68012E57
:1002D00005D0022E03D0112E01D0122E12D1866825
:1002E0004FEA420C05FA0CF7BE43CF6807FA0CF749
:1002F000374387604668A6430C79C4F300149440E2
:1003000034434460C668570005FA07FC8C6826EA47
:100310000C06BC403443C4604C68022C01D0122C43
:1003200013D1D40800EB8404A346D4F820905407DA
:100330004FEAD46A0EFA0AF629EA06090E6906FAA5
:100340000AF646EA0906CBF8206006680C7926EA28
:100350000C0604F00304BC40344304604C68E40021
:1003600065D5364C266846F480462660246822F01F
:10037000030604F480440094314C3444A446D4F879
:1003800008489607370F0EFA07F6B4432D4EB042D1
:1003900001D1002624E02C4EB04201D101261FE0FD
:1003A0002A4EB04202D102261AE040E0284EB04266
:1003B00001D1032614E0274EB04201D104260FE0FC
:1003C000254EB04201D105260AE0244EB04201D1AB
:1003D000062605E0224EB04201D1072600E008269D
:1003E000BE402643CCF808681E4E34684F689C43D4
:1003F000FF0300D51C4334601A4C241D26684F6847
:100400009E43BF0300D51E432660164E083634684F
:100410004F689C43FF0200D51C433460114E0C36DC
:1004200034684F689C43BF0200D51C433460521CA3
:10043000102AFFF445AFBDE8F88F000044380240B1
:100440000030014000000240000402400008024069
:10045000000C02400010024000140240001802404C
:10046000001C0240003C01400069084000D001200F
:1004700070470AB1816170470904FBE70148806851
:10048000704700001400002002488168027811447F
:1004900081607047140000200B4810B5016841F4DA
:1004A00000710160016841F480610160016841F4FC
:1004B00080710160032000F06FF8002000F006F862
:1004C00000F024F8002010BD003C024070B50D4D36
:1004D00004464FF47A712878B1FBF0F00A490968B4
:1004E000B1FBF0F000F0E2FA48B9102C07D200227C
:1004F0002146501E00F030F800206C6070BD0120D5
:1005000070BD000014000020200000200A4808B53B
:10051000016841F480410160006800F4804000906F
:100520000548001F016841F080510160006800F03B
:100530008050009008BD000044380240002809DBCC
:1005400000F01F02012191404009800000F1E020ED
:10055000C0F8001170470000F0B40E4B1B680C4649
:10056000C3F30223C3F10705042D00D90425191D87
:10057000072901D2002300E0DB1E012606FA05F15F
:10058000491E214099409E40761E16403143F0BCE2
:1005900000F01CBF0CED00E0064900F007020868FF
:1005A0004FF6FF03184040EA0220034A1043086058
:1005B000704700000CED00E00000FA052DE9F0475F
:1005C0000E46050065D0DFF81481D8F80000F7B2B8
:1005D00000F00F00B04207D288F80070D8F8000091
:1005E00000F00F00B04254D128683D4C810712D56D
:1005F000400703D5206840F4E050206028780007C9
:1006000003D5206840F4604020602068A96820F08D
:10061000F000084320602878C0072DD03049686872
:100620000839012812D0022813D0032811D00968F4
:10063000890700292DDA216821F003010143216097
:10064000FFF71CFF814641F2883A0EE009688903F2
:10065000EFE709688901ECE7FFF710FFA0EB09015C
:10066000514502D90320BDE8F0872068696800F091
:100670000C00B0EB810FEFD1D8F80010404601F02C
:100680000F01B14207D90770006800F00F00B042B7
:1006900001D00120E7E72878400705D52068E96800
:1006A00020F4E050084320602878000706D5206831
:1006B000296920F4604040EAC100206000F018F889
:1006C0002168084AC1F30311515CC840064908601B
:1006D00006480068FFF7FAFE0020C4E7003C02402D
:1006E000083802404C1400082000002018000020A8
:1006F000154810B5006810F00C02144813D04110D2
:10070000042A0FD0082A0ED10F4C241F2268236818
:1007100002F03F025B0207D52068C0F38810A0FBFF
:10072000010106E0084610BD2168C1F38811A1FB54
:1007300000010023FFF744FD2168C1F30141491C7A
:100740004900B0FBF1F010BD083802400024F4006D
:100750002DE9F84F04006ED02078DFF83C93C007F5
:10076000A9F104054AD009F104000168C1F381012F
:10077000012908D00068C0F3810002280AD1D9F805
:100780000000400206D52868800337D5606800283D
:10079000E1D033E06068B0F5803F10D0B0F5A02F15
:1007A000286810D020F480302860286820F4802049
:1007B00028606068A8B1FFF761FE06460DE0286872
:1007C00040F48030F4E740F480202860F7E700BF71
:1007D000FFF754FE801B642873D828688003F7D580
:1007E0000CE0FFF74BFE064605E000BFFFF746FEB4
:1007F000801B6428F0D828688003F7D42078DFF8BD
:100800009C8280074FF0000A3ED5A348001D016876
:1008100011F00C0F08D00068C0F3810002280BD142
:10082000D9F80000400207D42868800716D5E06890
:10083000012800D112E02BE1E068B8B10120C8F82E
:100840000000FFF71BFE064605E000BFFFF716FE9F
:10085000801B0228C0D828688007F7D5286821693E
:1008600020F0F80040EAC10028600DE0C8F800A0C0
:10087000FFF704FE064604E0FFF700FE801B022897
:100880001FD828688007F7D42078000722D5824E29
:1008900083486169703671B101210160FFF7EEFD97
:1008A000074604E0FFF7EAFDC01B022809D83068BC
:1008B0008007F7D50EE0C0F800A0FFF7DFFD074680
:1008C00005E082E0FFF7DAFDC01B02287DD8306822
:1008D0008007F7D42078400768D5DFF8BCB100273F
:1008E0000BF13C0BDBF80000C0000BD4DBF8001070
:1008F00041F08051CBF80010DBF80000012700F038
:1009000080500090674E3068C00510D4306840F4C5
:1009100080703060FFF7B2FD009005E0FFF7AEFD9C
:100920000099401A022850D83068C005F6D55A4EB2
:10093000A0686C3601280FD00528306810D020F050
:1009400001003060306820F004003060A068B8B169
:10095000FFF794FD00900FE0306840F00100F4E7ED
:1009600040F004003060F7E7FFF788FD0099411A76
:1009700041F28830814266D830688007F4D50EE0B5
:10098000FFF77CFD009007E0FFF778FD0099411A22
:1009900041F28830814256D830688007F4D42FB1B4
:1009A000DBF8001021F08051CBF80010A069C8B32B
:1009B0003949091D0968C1F3810102294AD0022879
:1009C000504607D0C8F8600000E03CE0FFF756FD55
:1009D00004463BE04746C8F86000FFF74FFD064677
:1009E00005E000BFFFF74AFD801B02282BD82868CE
:1009F0008001F7D4D4E907010843A16A2A4A4908CB
:100A000002EB0141626A41EA8211084394F82C101A
:100A100040EA0161C9F8001001203866FFF72EFD99
:100A2000044606E036E000BFFFF728FD001B022861
:100A300009D828688001F7D52CE000BFFFF71EFD1C
:100A4000001B022802D90320BDE8F88F2868800126
:100A5000F4D41FE00128F7D0D9F80000E26900F4CF
:100A60008001914214D1226A00F03F0191420FD1DE
:100A700047F6C071626A0140914209D1A26A00F44E
:100A80004031914204D1E16A00F07060884201D0A7
:100A90000120D9E70020D7E7043802400000474290
:100AA000800E4742007000400000FFFF10B5401E5E
:100AB000B0F1807F01D3012010BD4FF0E0246061D0
:100AC0000F21601700F082FC0020A0610720206148
:100AD000002010BD7047704770B590F83C20012A87
:100AE00032D0012480F83C40022280F83D20036887
:100AF0005A689D6822F070060A6832435A60134BA8
:100B000002689A4214D0B2F1804F11D0104B9A4231
:100B10000ED0104B9A420BD00F4B9A4208D00F4B7D
:100B20009A4205D00E4B9A4202D00E4B9A4204D103
:100B3000496825F080031943916080F83D40002109
:100B400080F83C10084670BD022070BD00000140D6
:100B50000004004000080040000C00400004014078
:100B6000004001400018004010B5040003D094F884
:100B70003D0010B107E0012010BD002084F83C00CA
:100B8000204600F00DF8022084F83D00211D206869
:100B900000F078FB012084F83D00002010BD00002B
:100BA00008B50068B0F1804F12D10A48016841F0E1
:100BB000010101600068002200F001000090114670
:100BC0001C20FFF7C9FCBDE808401C20FFF7B6BC9D
:100BD00008BD0000403802400168CA6842F00102C6
:100BE000CA600068816801F00701062903D0016826
:100BF00041F0010101600020704770B5044690F893
:100C00003C00012817D0012584F83C50022084F8CC
:100C10003D002068826822F0770222F47F428260E1
:100C20000868502830D00DDC20284DD005DC98B362
:100C300010283BD148E0022070BD302844D0402825
:100C400034D139E0602828D0702806D0B0F5805F14
:100C50002CD0B0F5005F29D10AE0CB68D1E90121A1
:100C6000206800F073FB2068816841F0770109E09B
:100C7000CB68D1E90121206800F068FB2068816819
:100C800041F48041816011E0CA684968206800F041
:100C90006FFB5021206807E016E0CA6849682068A9
:100CA00000F077FB6021206800F05AFB84F83D508B
:100CB000002084F83C0070BDCA684968206800F0D4
:100CC00057FB40212068EFE7226801461046EBE71A
:100CD000704770B50446006801694FF00005C943CC
:100CE000890715D4C168C943890711D4E91E016178
:100CF00001202077206880698007204602D0FFF716
:100D0000E7FF04E000F098F8204600F096F8257719
:100D100020680169C943490717D4C168C943490715
:100D200013D46FF0040101610220207720688069EC
:100D300010F4407F204602D0FFF7CAFF04E000F025
:100D40007BF8204600F079F8257720680169C943CF
:100D5000090716D4C168C943090712D46FF0080106
:100D60000161042020772068C0698007204602D0F6
:100D7000FFF7AEFF04E000F05FF8204600F05DF8FA
:100D8000257720680169C943C90617D4C168C943DA
:100D9000C90613D46FF01001016108202077206884
:100DA000C06910F4407F204602D0FFF791FF04E0B5
:100DB00000F042F8204600F040F8257720680169ED
:100DC000C943C90708D1C168C943C90704D1891EED
:100DD0000161204600F032F820680169C943090624
:100DE00009D4C168C943090605D46FF080010161C7
:100DF0002046FFF76FFE20680169C943490609D400
:100E0000C168C943490605D46FF04001016120461D
:100E100000F02AF820680169C94389060BD4C1682B
:100E2000C943890607D46FF0200101612046BDE85F
:100E30007040FFF750BE70BD7047704710B508494D
:100E40000068096888420AD100F0B0F905480188B5
:100E5000491C89B20180142901D30021018010BDF1
:100E600024000020000000207047FEE71B484FF4DC
:100E70007A720178090709D54188914201D2491C4B
:100E8000418089B2642901D10321017401790907E4
:100E900009D5C188914201D2491CC18089B2642917
:100EA00001D106210174017A090709D541899142CE
:100EB00001D2491C418189B2642901D109210174FF
:100EC000017B090709D5C189914201D2491CC18121
:100ED00089B2642901D10C2101747047640000209B
:100EE00070B5114C11484FF40071227C03150D2A86
:100EF0000AD2DFE802F0090F1111131515131515A9
:100F00000F111100FFF7B5FA207C002801D0002056
:100F1000207470BD0022F5E70122F3E7002200E013
:100F200001221946EEE70000640000200014024090
:100F300070B53C4C002000BF14F8201021F00101D6
:100F400004F82010401CC0B20428F5D3364D1021FF
:100F50002846FFF789FA18B9207840F00100207080
:100F600008212846FFF780FA18B9207940F00100DF
:100F7000207104212846FFF777FA18B9217A41F049
:100F80000101217201212948FFF76EFA18B1217B76
:100F900041F00101217300215FF0010214F82100EA
:100FA00022EAD003034063F3410080EA500383EA5E
:100FB000D00363F38200034660F3C30304F82130D7
:100FC000180703D404EB810300205880491CC9B2E0
:100FD0000429E3D32078810700D522742379990767
:100FE00001D504212174227A910701D507212174AA
:100FF000217B8D0701D50A252574400701D50220E4
:101000002074580701D505202074500701D5082009
:101010002074480701D50B202074BDE87040FFF70D
:1010200025BF0000640000200010024000000240C4
:10103000F0B587B014216846FFF7FAF82548002478
:10104000016841F010010160016801F01001059193
:10105000016841F020010160016801F02001059163
:10106000016841F080010160016801F08001059193
:10107000016841F001010160016801F00101059181
:10108000016841F0020101600068134F00F00200A6
:101090004FF4C0660590002231463846FFF7E9F963
:1010A0001C2001258DE8310069460C48FFF700F946
:1010B0000096CDE90154694638460394FFF7F8F8E5
:1010C00002200095CDE9014069460548FFF7F0F898
:1010D00007B0F0BD3038024000140240001002405A
:1010E0000000024010B586B0002416480094019418
:1010F0000294039404944FF08041059401605321BD
:10110000C0E9011440F2E731C0E903148461FFF73C
:101110002BFD08B1FFF7CAF84FF4805000906946E4
:101120000848FFF76AFD08B1FFF7C0F8049404A966
:1011300004480594FFF7D0FC002801D0FFF7B6F86B
:1011400006B010BD24000020FEE770470A494FF4A6
:101150007A7200204A806422CA8032224A81142294
:10116000A1F80E2001EB8002528821F82020401CBB
:10117000C0B20428F6D370477600002070B5094D40
:10118000094E002435F8240038B905EB8400408866
:1011900025F8240056F824008047641CE4B2042C8F
:1011A000F0D370BD76000020040000200649002026
:1011B00031F8202012B1521E21F82020401CC0B26C
:1011C0000428F5D370470000760000207047704770
:1011D000FFF75AB930B593B030216846FFF728F8C9
:1011E00014210CA8FFF724F81A480025016841F0E3
:1011F00080510160006800F080501190164801682D
:1012000041F4804101600068022400F480401190A4
:1012100001200090000401908001CDE906400820E3
:1012200008904FF4A870CDE9090404200B9068469B
:10123000FFF78EFA0CA90F2081E831004FF4A0507F
:101240000F90E002109005210CA8FFF7B7F913B03A
:1012500030BD000040380240007000400548016881
:1012600041F47001016003494FF00060803908606B
:101270007047000088ED00E00148FFF72ABD00003C
:1012800024000020F0B50268254C264D264E274F3D
:10129000274B4FF0804CA04209D0604507D0A842B0
:1012A00005D0B04203D0B84201D0984204D122F018
:1012B000700E4A6842EA0E02A0421BD0604519D067
:1012C000A84217D0B04215D0B84213D0984211D0DE
:1012D000184DA8420ED0184DA8420BD0174DA84269
:1012E00008D0174DA84205D0164DA84202D0164D81
:1012F000A84203D122F44075CA682A434D6922F0FE
:1013000080022A4302608A68C2620A688262A0423E
:1013100001D0984201D10969016301214161F0BD09
:10132000000001400004004000080040000C0040A4
:1013300000040140004001400044014000480140D9
:1013400000180040001C00400020004010B58468D8
:1013500042EA032224F47F440A432243826010BD00
:10136000826822F070020A4342F0070181607047F0
:1013700010B5036A046A24F001040462846924F04D
:10138000F00444EA021423F00A020A438461026270
:1013900010BD10B5036A23F0100303628369046A69
:1013A00023F4704343EA023224F0A00343EA01111C
:1013B0008261016210BD70477047704710B5FFF73A
:1013C000B7FDBDE81040FFF78BBDFEE70907090E2A
:1013D000002804DB00F1E02080F80014704700F0E2
:1013E0000F0000F1E02080F8141D704702E008C8EB
:1013F000121F08C1002AFAD170477047002001E08F
:1014000001C1121F002AFBD170470000FFF744F80A
:10141000FFF7E0FEFFF70CFEFFF764FE0948FFF759
:10142000DBFB094C012251022046FFF722F8012282
:1014300091022046FFF71DF8FFF788FEFFF79EFE9A
:10144000FCE700002400002000140240000000001F
:101450000000000001020304060708097C140008CC
:101460000000002024000000EC130008A014000875
:101470002400002064040000FC13000800000000A9
:10148000B7130008B9130008BB130008BD13000808
:101490000100000010000000000000000024F40023
:040000050800018965
:00000001FF
